:020000040800F2
:10000000705300205D020008A7320008392B000859
:10001000A5320008110B0008D141000800000000C3
:100020000000000000000000000000009D0100082A
:10003000B10D000800000000F9010008C1380008F7
:1000400077020008770200087702000877020008AC
:10005000770200087702000877020008770200089C
:10006000770200087702000877020008770200088C
:10007000770200087702000877020008770200087C
:10008000770200087702000877020008770200086C
:10009000150B0008770200087702000877020008B5
:1000A000770200087702000877020008770200084C
:1000B000770200087702000877020008770200083C
:1000C000770200087702000877020008770200082C
:1000D00077020008BD410008770200087702000897
:1000E000770200087702000877020008770200080C
:1000F00077020008770200087702000877020008FC
:1001000077020008770200087702000877020008EB
:1001100077020008770200087702000877020008DB
:1001200077020008770200081D0D0008770200081A
:1001300077020008770200087702000877020008BB
:10014000210B0008770200087702000877020008F8
:100150007702000877020008290D000877020008DE
:10016000770200087702000877020008770200088B
:1001700077020008770200087702000800000000FC
:100180007702000877020008DFF80CD000F0A4FB2B
:1001900000480047F9530008705300202C4B1968A1
:1001A0000868B0E8F04F80F30988BFF36F8F4FF015
:1001B000000080F3118870470000000008480068C4
:1001C000006880F308884FF0000080F3148862B65E
:1001D00061B6BFF34F8FBFF36F8F00DF00BF00BF6B
:1001E00008ED00E0DFF80C00016841F470010160E7
:1001F000704700BF88ED00E0EFF30980BFF36F8F19
:10020000134B1A681EF0100F08BF20ED108A20E96A
:10021000F04F106009B44FF0500080F31188BFF325
:100220004F8FBFF36F8F05F0F1FE4FF0000080F3AA
:10023000118809BC19680868B0E8F04F1EF0100F6B
:1002400008BFB0EC108A80F30988BFF36F8F704746
:1002500018010020EFF30580704700000648804732
:1002600006480047FEE7FEE7FEE7FEE7FEE7FEE79B
:10027000FEE7FEE7FEE7FEE75D39000889010008BA
:100280002DE9F05F0546002092469B4688460646CB
:10029000814640241BE0284641464746224600F05E
:1002A00064FA53465A46C01A914110D31146184673
:1002B000224600F04BFA2D1A67EB01084F46224602
:1002C0000120002100F042FA17EB00094E41201EE8
:1002D000A4F10104DFDC484631462A464346BDE826
:1002E000F09F40EA01039B0703D009E008C9121FF1
:1002F00008C0042AFAD203E011F8013B00F8013BE0
:10030000521EF9D27047D2B201E000F8012B491E0B
:10031000FBD270470022F6E710B513460A460446A2
:100320001946FFF7F0FF204610BD2DE9FE4F80462D
:1003300081EA0300C00F0C46009021F0004123F039
:100340000045B8EB0200A94105D24046214690463F
:100350001C460B46024623F00040104347D0270DB1
:10036000C7F30A00C3F30A510290401A01904028D3
:100370006BDAC3F3130040F4801B0098924620B15F
:100380000023D2EB030A63EB0B0B01985946C0F133
:100390004002504600F0DAF906460D4650465946EE
:1003A000019A00F0F2F910EB08006141002487EA9D
:1003B000115284EAE7731A4340D0009A62B3019A5B
:1003C000012A4FEA075215DC001B61EB02014FF0D6
:1003D000004202EA0752CDE90042001C41F58011BB
:1003E00032462B4600F029FA03B0BDE8F08F4046B4
:1003F0002146F9E7001B61EB0201001C41F5801367
:1004000000185B412018A2F5001747EB030140EAF2
:10041000D570B6196D4111E06D084FEA360645EA10
:10042000C0754FEA0752001B61EB0201001C41F549
:10043000801149084FEA30000019514132462B46DD
:1004400003B0BDE8F04F00F0E9B900980122400088
:100450000023D0EB020263EBE073009821464FEAE1
:10046000E074B8EB000061EB0401E9E783F00043BE
:100470005BE781F0004158E72DE9FE4F81EA030474
:1004800004F0004421F0004100944FF0000B23F0F1
:10049000004350EA01045ED052EA03045BD0C3F388
:1004A0000A54C1F30A552C44A4F2F3340194A0FB7E
:1004B0000254C1F3130141F48011C3F3130343F455
:1004C000801301FB024400FB034E840A970A44EAAE
:1004D000815447EA8357A4FB076802958D0A05FB00
:1004E00007854FEA932C04FB0C542705029D4FEA25
:1004F000065847EA1637B5EB08056EEB070C870E72
:10050000920E47EA811742EA8312A7FB0201B6EB7B
:100510000B0164EB00042B0D43EA0C335E1844EB33
:100520001C50DA465146E7FB0201C5F313044FEABB
:100530000B3343EA14534FEA0432019C43EA0603A7
:10054000A4F10C040294009CCDE900B400F075F90C
:1005500003B0BDE8F08F00200146F9E72DE9F04D2A
:1005600081EA030404F0004B21F0004514464FF0EB
:10057000000A23F0004150EA050220D054EA0102AB
:100580001DD0C5F30A570246C5F31303C1F3130088
:10059000C1F30A5640F4801543F48013A7EB060814
:1005A000101BD64608F2FD3873EB050002D308F1A4
:1005B000010801E092185B41B8F1000F03DA002056
:1005C0000146BDE8F08D00204FF4801106468446B8
:1005D0000EE0171B73EB050705D3121B63EB050336
:1005E00006434CEA010C49084FEA300092185B417F
:1005F00050EA0107EDD152EA030012D082EA04006A
:1006000083EA0501084305D0101BAB4106D2012245
:10061000002306E000224FF0004302E06FF00102E9
:1006200053101AEB06004CEB085110EB0A0041EB9B
:100630000B01BDE8F04D00F0F1B80EB5C10F80EA36
:10064000E0700844CA07002140F233438DE80E00F1
:100650000A460B4600F0F1F803B000BDC1F30A52A0
:1006600010B5C1F3130140F2FF3341F480119A42F7
:1006700001DA002010BD40F233439A42A2F2334225
:1006800003DC524200F071F810BD904010BD00F044
:10069000004230F000400AD0C10D01F56071C0F396
:1006A000160042EA0151C20840071143704700207A
:1006B0000146704730B5041E71F1000404DB4FF0B1
:1006C0000044404264EB0101141E73F1000405DB99
:1006D0001C464FF00043524263EB04038B4208BFB9
:1006E000824230BD30B5041E71F1000404DB4FF0CE
:1006F0000044404264EB0101141E73F1000405DB69
:100700001C464FF00043524263EB0403994208BF7A
:10071000904230BD01F0004330B421F0004150EA76
:10072000010206D00A0DA2F56072C1F31301002A7E
:1007300002DC30BC00207047440F44EAC104C10011
:10074000E01830BC00EBC25000F031B8202A04DBC6
:10075000203A00FA02F1002070479140C2F12003D4
:1007600020FA03F3194390407047202A04DB203A13
:1007700021FA02F00021704721FA02F3D040C2F1C1
:1007800020029140084319467047202A06DBCB1708
:10079000203A41FA02F043EAE07306E041FA02F33C
:1007A000D040C2F120029140084319467047002909
:1007B000A8BF7047401C490008BF20F001007047E7
:1007C00010B4B0FA80FC00FA0CF050EA010404BF47
:1007D00010BC704749B1CCF1200421FA04F411FA9D
:1007E0000CF118BF012121430843A3EB0C01CB1DE1
:1007F0004FEA00614FEA102042BF002010BC704752
:1008000000EBC35010440029A4BF10BC7047401C2B
:10081000490008BF20F0010010BC704710B5141E3D
:1008200073F1000408DA401C41F1000192185B41A9
:100830001A4301D120F0010010BD2DE9F04D924680
:100840009B4611B1B1FA81F202E0B0FA80F2203297
:100850009046FFF77BFF04460F4640EA0A0041EA54
:100860000B0153465A46084313D0114653EA010080
:1008700019D0C8F140025046FFF777FF05460E46F3
:10088000504659464246FFF761FF084305D0012014
:1008900004E020463946BDE8F08D0020054346EAD5
:1008A000E0762C4337430A986305E40AA0EB08007E
:1008B0000022FD0A44EA47540A3002D500200146CE
:1008C000E9E7010510196941DDE9084500196941A9
:1008D000BDE8F04DA2E70000064C074D06E0E068D9
:1008E00040F0010394E8070098471034AC42F6D377
:1008F000FFF74EFCD4680008F46800080EB540F21B
:10090000334102910021CDE900110A460B46FFF761
:1009100094FF03B000BD70B5C1F30A5201F0004569
:100920000024C1F3130140F2FF3341F480119A42D5
:1009300001DA002070BD40F233439A42A2F2334202
:1009400003DC5242FFF711FF00E090402C43F1D04E
:10095000404270BD30B58C1810F8012B12F00F0317
:1009600001D110F8013B120906D110F8012B03E068
:1009700010F8015B01F8015B5B1EF9D101E001F8A1
:10098000013B521EFBD1A142E6D3002030BD000046
:10099000464910B54A6822F440324A604A684368C2
:1009A0001A434A6001684A6822F480724A6001680A
:1009B0004A68036942EA03224A6001684A6822F0F1
:1009C00040724A6001684A6883681A434A60016855
:1009D0008A6822F400628A6001688A68C3681A43E0
:1009E0008A60816A6FF07062D14201688A6822F081
:1009F00070628A6001688A680CD0836A1A438A60D0
:100A000001688A6822F040528A6001688A68C36A75
:100A10001A4301E022F040528A6001688A6822F09D
:100A200002028A6001688A68037E42EA43028A60A1
:100A300090F82010002901684A680FD042F4006243
:100A40004A6001684A6822F460424A6001684A6864
:100A5000174C436A04EB43331A4301E022F400626B
:100A60004A600168CA6A22F47002CA620168CA6AEE
:100A7000838B104C04EB03531A43CA6201688A68E3
:100A800022F400728A6001688A6890F8303042EA85
:100A900043228A6001688A6822F480628A60016861
:100AA0008A68406942EA8020886010BD00230140C6
:100AB00000E0FFFF0000F0FF30B50C4605000CD051
:100AC000022C0AD90548A11EC288284600F072F9F6
:100AD000291901F8020D000A487030BD00000020FD
:100AE00030B50C46050008D0022C06D9FF22611E45
:100AF00000F076F9291901F8010C30BD10B502F0AB
:100B000077FBBDE81040014801F094BD4C10002077
:100B1000FEE70000014800F0AEBC0000680B0020BA
:100B2000014800F0A8BC0000900B00202DED028BC6
:100B300082B0DFED3C8A9FED3C8A3C4C002500BF33
:100B400005EB450000EB051004EB8000F0EE680AB1
:100B5000B0EE480A364A002102F04EFC6D1C042D0E
:100B6000EEDB334A9FED338A9FED330A0C32F0EE11
:100B7000480A0021314802F03FFC02F001F905F07B
:100B800069FB2A4D2E4E2C3DCDF8000002F0DEF818
:100B900005F0B4F87079022806D0012804D00628A0
:100BA00002D06F2800D00020A88304F061FA1F480B
:100BB0002C3804F0CBF904F0EBFA04F01BFA04F043
:100BC00051FF707958B900BF00EB400101EB0011F3
:100BD00004EB8101401C81ED098A0428F4DB94EDCB
:100BE000420ABDEEC00A10EE100A94ED2F0A03B2BD
:100BF000BDEEC00A10EE100A94ED1C0A02B2BDEE62
:100C0000C00A10EE100A94ED090A01B2BDEEC00A46
:100C100010EE100A00B204F089F80421684605F0CD
:100C200071F9B3E700409C4500401C46F0080020E5
:100C3000D40000200000000000A08C45200A002005
:100C4000EC00002010B50446134801F08BFF9821FA
:100C5000114802F04AF8104802F022F8012816D094
:100C600021090D4802F041F80B4802F019F801285B
:100C70000ED02007010E084802F037F8064802F0AF
:100C80000FF8012806D0044801F090FF002010BDA5
:100C9000022010BD032010BDBC0100202DE9F0474B
:100CA000154C0F46824620684006FCD5124D4FF089
:100CB00003092D1DC5F8009020684006FCD54FF0B3
:100CC000FC08C5F80080002607E000BF0AEB86009C
:100CD000042103F00DF8761CF6B2BE42F6D320686C
:100CE0004006FCD5C5F8008020684006FCD5C5F854
:100CF0000090BDE8F087000000480040064900224F
:100D00000B685A62C0EBC000096800EB40004A6AF9
:100D1000B2EB800FFBD370474C100020014800F06D
:100D20008DBE00000C110020014800F087BE0000BD
:100D30006C11002001681823CAB2103AB2FBF3F21A
:100D4000054B6FF30901032A9B5CC36500D9091D9C
:100D500081650846704700005C67000810B50146D1
:100D600000208B698A6A4FF0C07453B1B3F5005FFD
:100D700015D072B1012A0CD0022A0AD0032A09D157
:100D800004E01AB1012A06D0022A03D1C96AC901B6
:100D900000D5012010BDC96AA142FAD010BD002AB9
:100DA000F7D0012AF2D0022AF3D0032AF3D010BDE3
:100DB0007047704710B558B1084C491E0BD310F856
:100DC000013B5340DBB234F8133083EA1222F4E7DC
:100DD0004FF6FF7010BD104610BD0000EC64000817
:100DE00010B5054C04E000BF10F8013B5340E25C35
:100DF000491EF9D2104610BDEC63000878B50024F6
:100E0000009490F83C20012A19D0012280F83C205F
:100E10000A6807230568092A13D9EE680A3A02EB23
:100E2000420293409E43EE600B788A680A3B03EBD4
:100E300043039A400368DD682A43DA6010E0022029
:100E400078BD2E6902EB420293409E432E610B78DF
:100E50008A6803EB43039A4003681D692A431A61B9
:100E60004A681F23072A13D205686E6B521E02EBD5
:100E7000820293409E436E630B790A885B1E92B296
:100E800003EB83039A4003685D6B2A435A6327E0B0
:100E900005680D2A12D22E6BD21F02EB82029340FC
:100EA0009E432E630B790A88DB1F92B203EB830308
:100EB0009A4003681D6B2A431A6311E0EE6A0D3AEB
:100EC00002EB820293409E43EE620B790A880D3B4F
:100ED00092B203EB83039A400368DD6A2A43DA6225
:100EE000164B0568144A9D4206D10D68122D03D198
:100EF000556845F48005556005689D4218D10B681A
:100F0000102B01D0112B13D1536843F4000353600D
:100F1000096810290CD10A490A4A0968B1FBF2F1A3
:100F200001EB8101490000E0491E00910029FBD13D
:100F300080F83C40002078BD0023014000200140A3
:100F40001401002040420F000068C06C704770B56B
:100F500004004FF0000503D0206C002610B107E01C
:100F6000012070BD204600F01DF8666484F83C60E6
:100F7000206CC00610D4206C20F4885040F0020091
:100F800020642046FFF704FD6664206C20F0020018
:100F900040F00100206400E0012584F83C60284610
:100FA00070BD000010B586B0044614216846FFF7F6
:100FB000B1F91149206888421CD11048002102680B
:100FC00042F480720260006800F4807005900B4863
:100FD0001438026842F001020260006800F001006B
:100FE0000590012000900320CDE9010169460448E5
:100FF00000F05EFE06B010BD002001404438024003
:10100000000002402DE9F041044600680D46816869
:101010004FF0000749050BD58068C00508D5206C46
:1010200040F02000206484F83C700120BDE8F0818D
:1010300000F02CFF06460FE0681C0DD025B100F033
:1010400025FF801BA84207D9206C40F004002064D3
:1010500084F83C700320E9E7206800688007EBD53E
:1010600021686FF012000860206C40F4007020646A
:101070002068816811F0405F13D1217E89B9C16A6F
:1010800011F4700F02D0806840050AD4206C20F45F
:1010900080702064206CC00403D4206C40F00100F8
:1010A00020640020C2E7000018B50021009190F8EC
:1010B0003C20012A07D0012280F83C200268936876
:1010C000DB0702D011E0022018BD936843F0010352
:1010D00093602A4A2A4B1268B2FBF3F202EB4202F7
:1010E00000E0521E0092002AFBD102689368DB07E1
:1010F00041D0036C40F20164A34343F48073036462
:1011000053685B0505D5036C23F4005343F4805307
:101110000364036CDB0404D5436C23F006034364CF
:1011200000E0416480F83C1016496FF02203136020
:1011300049680068CA06144906D088421BD18168F4
:1011400011F0405F13D016E08842F8D00F4A904269
:1011500003D1D1F80423D206F1D00D4A90420AD12E
:10116000D1F8041301F01F011029E8D303E08168CE
:1011700041F080418160002018BD00001401002072
:1011800040420F00002301400020014000210140A7
:101190000022014090F82020012A07D0022A05D021
:1011A000416A41F480214162012070470068426930
:1011B0000A43426100207047F0B590F8205004685F
:1011C000A468012D05D0022D03D0416A41F480218D
:1011D00053E014F0406F01D1E5004BD5C4F3016436
:1011E000022C03D9416A41F4000146E00125A540E3
:1011F0001D608D684FF4C0739DB1CE6835434E6855
:1012000045EAC605066803EB0417F5514FF4C275AD
:10121000076805EB04150E697E51097D012905D08B
:1012200009E00E88CD6845EA4655EBE701684E595E
:1012300046F480764E511179D2F805504FF4C676B7
:1012400041EA0525016806EB04168D511178D2F8A4
:1012500001204FF4C47541EA0221026805EB041530
:101260005151006803EB0411425842F00102425010
:101270000020F0BD416A41F4001141620120F0BD3F
:1012800010B590F82020012A07D0022A05D0416A23
:1012900041F480214162012010BD3B48D0F800227A
:1012A00042F00102C0F80022D0F8002222F47C5261
:1012B000C0F80022D0F800224B6A42EA0322C0F8AC
:1012C00000220A7D02F01F0301229A40D0F81C324E
:1012D0009343C0F81C32CB69B3B9D0F80C329343B6
:1012E000C0F80C328C894B6864F31F434C6900EBE7
:1012F000C404C4F840320C890B6864F31F434C6982
:1013000000EBC404C4F84432CB69012B16D1D0F8E9
:101310000C321343C0F80C320C884B6864F31F4343
:101320004C6900EBC404C4F840320C89CB6864F308
:101330001F434C6900EBC404C4F844328B69002B92
:10134000D0F804320ED01343C0F804320B69002BDE
:10135000D0F8143208D01343C0F81432096A0129B6
:1013600004D008E09343EFE79343F5E7D0F81C126D
:101370001143C0F81C12D0F8001221F00101C0F88E
:101380000012002010BD000000640040704730B51E
:1013900090F82040012C05D0022C03D0416A41F482
:1013A00080215DE00468002955D02469A40754D049
:1013B0004FF4D874056804EB01142D5915F0040599
:1013C000956005682D594ED0ED08556005682C597B
:1013D00004F00204D4604FF4DA74056804EB0114DD
:1013E0002D5905F00F05156105682D59C5F3072521
:1013F000956105682C59240C54614FF4DC72046823
:1014000002EB0112A4581C700468A458240A5C70F2
:101410000468A458240C9C700468A258120EDA7058
:101420004FF4DE72046802EB0112A4581C710468C8
:10143000A458240A5C710468A458240C9C710468A4
:10144000A258120EDA71006881B1016941F02001E1
:101450000161002030BDE468A8E7416A41F4001151
:101460004162012030BD6D0D1560AFE7C16841F0EC
:101470002001C160EDE72DE9F05F0546006800241A
:101480004669D0F804908768D0F80CB0D0F810A066
:10149000D0F81880F10748D0F90714D001218160F5
:1014A000B80703D5284600F0B0FA0CE0780702D55B
:1014B0004FF4006407E0380702D54FF4805402E08F
:1014C000284600F0A1FAF80516D529684FF4807077
:1014D0008860B80503D5284600F099FA0CE0780535
:1014E00002D544F4005407E0380502D544F48044A2
:1014F00002E0284600F08AFAF80316D529684FF46E
:1015000080308860B80303D5284600F082FA0CE0EA
:10151000780302D544F4004407E0380302D544F4CC
:10152000803402E0284600F073FA300707D55FEAFE
:10153000CB6004D52968102044F40074C86070079B
:101540004FF0080707D55FEA0B7004D52868C7601D
:10155000284600F09BF9B00706D52868C0688007C8
:1015600002D0284600F094F9700607D55FEACA60F9
:1015700004D52968102044F480640861B00607D5BA
:101580005FEA0A7004D528680761284600F00CFA63
:10159000F00606D528680069800702D0284600F0CA
:1015A00004FAB00308D55FEAC96005D529681020A0
:1015B0004860284600F0FAF9F00307D55FEA0970A1
:1015C00004D528684760284600F024FA300446D540
:1015D0005FEA497040D5F00504D55FEAC87001D0D4
:1015E00044F00104B00504D55FEA887001D544F0E9
:1015F0000204700504D55FEA487001D544F0040484
:10160000300529D518F0700F26D008F0700040285A
:1016100015D006DC102809D020280AD0302816D191
:101620000AE050280ED0602811D10EE044F00804E2
:101630000DE044F010040AE044F0200407E044F018
:10164000400404E044F0800401E044F4807428681D
:10165000816921F070018161296804204860002CB3
:1016600005D0686A204368622846FFF78FFEBDE810
:10167000F09F70B5040003D094F8200010B104E08E
:10168000012070BD204600F081F82068016821F03B
:101690000201016000F0FAFB0546052604E000F0B7
:1016A000F5FB401B0A2811D8206840688007F6D453
:1016B0002068016841F00101016000F0E7FB054688
:1016C0000BE000F0E3FB401B0A2806D9606A40F4F7
:1016D0000030606284F82060D2E720684068C0076C
:1016E000EFD0207E0128206801683DD021F08001E4
:1016F0000160607E01282068016838D021F0400137
:101700000160A07E01282068016833D021F020010B
:101710000160E07E0128206801682ED041F01001B0
:101720000160207F01282068016829D021F008018C
:101730000160607F01282068016824D021F0040145
:101740000160D4E902010843D4E9041211430843BB
:101750006168491E08432168C86100206062012059
:1017600084F82000002070BD41F08001C0E741F006
:101770004001C5E741F02001CAE721F01001CFE7A1
:1017800041F00801D4E741F00401D9E7F0B587B092
:10179000044614216846FEF7BDFD374B3748DFF895
:1017A000D4E01968D4F800C0344A0225032609277A
:1017B00010300024491CF44524D11960012907D1B7
:1017C000016841F000710160006800F00070059050
:1017D000106840F001001060106802AB00F00100DA
:1017E00005904FF4C050CDE9000583E8D00069466C
:1017F000234800F05DFA00220521142000F0B8FB18
:10180000142033E0DFF87CE0F44531D1D0F800C09B
:101810004CF0806CC0F800C0D0F800C001290CF07A
:10182000806CCDF814C0196007D1016841F00071D7
:101830000160006800F000700590106840F0020040
:101840001060106802AB00F0020005904FF44050A9
:10185000CDE9000583E8D00069460B4800F028FA7E
:1018600000220521402000F083FB402000F072FBA5
:1018700007B0F0BD00640040F400002030380240A2
:101880000000024000680040000402407047000071
:1018900000B589B00021079108913E49884246D1A0
:1018A0003D49642003F068FD07AB6A4600213948D2
:1018B000FFF76DFD00993948A1F50071013915D088
:1018C000012920D002292CD003290DD1BDF81C10EC
:1018D00049BA20F8741F00BFBDF81E1049BA018133
:1018E000BDF8201049BA018309B000BDBDF81C1035
:1018F00049BA0181BDF81E1049BA0182BDF8201015
:1019000049BA0184F0E7BDF81C1049BA8185BDF8D9
:101910001E1049BA8186BDF8201049BAA0F84410BB
:10192000E2E7BDF81C1049BA20F8501FD4E71C4963
:101930008842D9D1184964200C3103F01DFD07AB52
:101940006A4600211648FFF722FD009807280ED0AE
:10195000A0F500700738C7D1BDF81C0041BA0F4888
:1019600090300181BDF81E1049BA0182BCE7BDF874
:101970001C0041BA0B480180BDF81E1049BA4180D5
:101980009DF8201001719DF8211041719DF82210E1
:101990008171A9E7680B00207C0100206C0A0020FF
:1019A000900B0020EC00002070477047704700004B
:1019B00070B5044690F82000012804D0606A40F415
:1019C0000020606218E0022084F82000206801688E
:1019D00021F00101016000F059FA05460EE000BF58
:1019E00000F054FA401B0A2808D9606A40F400301D
:1019F0006062052084F82000012070BD20684068E6
:101A0000C007EDD1606270BD704770477047704786
:101A100070477047704790F83510022903D0802135
:101A2000416501207047052180F835100068016884
:101A300021F0010101600020704700002DE9F8430A
:101A400004464FF00009CDF8009063484FF416515A
:101A5000A56D0068B0FBF1F72E6894F85C100820C3
:101A600000FA01F131420FD021680A6852070BD504
:101A70000A6822F004020A6094F85C108840A860AA
:101A8000606D40F00100606594F85C104FF0010853
:101A900008FA01F0304208D021684969090604D5E6
:101AA000A860606D40F00200606594F85C1004204E
:101AB0008840304208D021680968890704D5A860A9
:101AC000606D40F00400606594F85C101020884060
:101AD000304218D021680968090714D5A860206829
:101AE0000168490304D50068000308D5A16C07E02C
:101AF0000168C90503D4016821F008010160216C67
:101B000009B12046884794F85C1020208840304274
:101B100031D021680968C9062DD5A86094F8350030
:101B200005282068016806D0490347D500680003EE
:101B30001DD4616C1CE021F0160101602068416930
:101B400021F080014161206C08B9A06C20B12068AF
:101B5000016821F00801016094F85C103F20884082
:101B6000A86084F8349084F83580216D1FE0E16B23
:101B700009B120468847606D00282BD0606DC007F2
:101B800014D0052084F835002068016821F0010197
:101B900001600098401C0090B84203D8206800689B
:101BA000C007F6D184F8349084F83580E16C0029C0
:101BB00010D001B02046BDE8F04308470168C905D0
:101BC000D5D4016821F01001016084F8349084F8C4
:101BD0003580CCE7BDE8F883140100202DE9F04101
:101BE000044600F053F906465CB1002584F83450F1
:101BF000022084F835002068016821F001010160AD
:101C00000DE00120BDE8F08100F040F9801B0528BF
:101C100005D920206065032084F83500F2E72068AC
:101C20000068C007F0D12268116820480140D4E95B
:101C300001031843D4E90336334318436369184357
:101C4000A3691843E3691843236A18430843616A88
:101C5000042903D1D4E90B13194308431060206809
:101C60004069666A20F0070130460E4301270428C8
:101C70000CD1A06A0643E06A40B12046FFF76EF837
:101C800020B14020606584F83570BAE7206846616D
:101C90002046FFF74FF894F85C203F219140816087
:101CA000656584F835700020ACE700003F8010F0D7
:101CB0002DE9F84F00224FF0010803254FF00F0ED9
:101CC0000B6808FA02F42340A3426ED14E68012E3D
:101CD00005D0022E03D0112E01D0122E12D186680B
:101CE0004FEA420C05FA0CF7BE43CF6807FA0CF72F
:101CF000374387604668A6430C79C4F300149440C8
:101D000034434460C668570005FA07FC8C6826EA2D
:101D10000C06BC403443C4604C68022C01D0122C29
:101D200013D1D40800EB8404A346D4F820905407C0
:101D30004FEAD46A0EFA0AF629EA06090E6906FA8B
:101D40000AF646EA0906CBF8206006680C7926EA0E
:101D50000C0604F00304BC40344304604C68E40007
:101D600065D5364C266846F480462660246822F005
:101D7000030604F480440094314C3444A446D4F85F
:101D800008489607370F0EFA07F6B4432D4EB042B7
:101D900001D1002624E02C4EB04201D101261FE0E3
:101DA0002A4EB04202D102261AE040E0284EB0424C
:101DB00001D1032614E0274EB04201D104260FE0E2
:101DC000254EB04201D105260AE0244EB04201D191
:101DD000062605E0224EB04201D1072600E0082683
:101DE000BE402643CCF808681E4E34684F689C43BA
:101DF000FF0300D51C4334601A4C241D26684F682D
:101E00009E43BF0300D51E432660164E0836346835
:101E10004F689C43FF0200D51C433460114E0C36C2
:101E200034684F689C43BF0200D51C433460521C89
:101E3000102AFFF445AFBDE8F88F00004438024097
:101E4000003001400000024000040240000802404F
:101E5000000C024000100240001402400018024032
:101E6000001C0240003C01400069084000D00120F5
:101E70007047426931EA020200D10904816170476A
:101E80000AB1816170470904FBE7000001488068DE
:101E90007047000008010020024881680278114460
:101EA00081607047080100200B4810B5016841F4BB
:101EB00000710160016841F480610160016841F4D2
:101EC00080710160032000F073F80F2000F006F825
:101ED00000F024F8002010BD003C024070B50D4D0C
:101EE00004464FF47A712878B1FBF0F00A4909688A
:101EF000B1FBF0F000F006FB48B9102C07D200222D
:101F00002146501E00F034F800206C6070BD0120A6
:101F100070BD000008010020140100200C4882B0B0
:101F2000016841F480410160006800F48040009045
:101F30000748001F016841F08051016000680022DD
:101F400000F0805000900F21901E02B000F010B8F9
:101F500044380240002809DB00F01F0201219140B3
:101F60004009800000F1E020C0F800117047000037
:101F7000F0B40E4B1B680C46C3F30223C3F10705F4
:101F8000042D00D90425191D072901D2002300E0E2
:101F9000DB1E012606FA05F1491E214099409E40AC
:101FA000761E16403143F0BC02F05DB90CED00E046
:101FB000064900F0070208684FF6FF03184040EAA0
:101FC0000220034A10430860704700000CED00E057
:101FD0000000FA052DE9F0470E46050065D0DFF850
:101FE0001481D8F80000F7B200F00F00B04207D219
:101FF00088F80070D8F8000000F00F00B04254D10B
:1020000028683D4C810712D5400703D5206840F46D
:10201000E05020602878000703D5206840F4604035
:1020200020602068A96820F0F0000843206028782C
:10203000C0072DD0304968680839012812D002281D
:1020400013D0032811D00968890700292DDA2168E7
:1020500021F0030101432160FFF718FF814641F29F
:10206000883A0EE009688903EFE709688901ECE71F
:10207000FFF70CFFA0EB0901514502D90320BDE891
:10208000F0872068696800F00C00B0EB810FEFD199
:10209000D8F80010404601F00F01B14207D907708F
:1020A000006800F00F00B04201D00120E7E7287877
:1020B000400705D52068E96820F4E0500843206017
:1020C0002878000706D52068296920F4604040EA96
:1020D000C100206000F038F82168084AC1F30311FC
:1020E000515CC8400649086006480068FFF7F6FEE4
:1020F0000020C4E7003C0240083802406467000842
:10210000140100200C0100200448054900680968FA
:10211000044AC1F38221515CC84070471401002079
:1021200008380240746700080448054900680968D7
:10213000044AC1F34231515CC84070471401002089
:102140000838024074670008154810B5006810F0A0
:102150000C02144813D04110042A0FD0082A0ED1C3
:102160000F4C241F2268236802F03F025B0207D550
:102170002068C0F38810A0FB010106E0084610BDEE
:102180002168C1F38811A1FB00010023FEF778F854
:102190002168C1F30141491C4900B0FBF1F010BDB9
:1021A000083802400024F4002DE9F84F040076D0EE
:1021B0002078DFF838A3CE4DC00749D0DAF80010F8
:1021C0005046C1F38101012908D00068C0F38100A5
:1021D00002280AD1281D0068400206D5286880031D
:1021E00036D560680028E2D032E06068B0F5803F04
:1021F00010D0B0F5A02F286810D020F480302860CF
:10220000286820F4802028606068A0B1FFF73EFEB7
:1022100006460CE0286840F48030F4E740F4802063
:102220002860F7E7FFF732FE801B642873D8286820
:102230008003F7D50CE0FFF729FE064605E000BF56
:10224000FFF724FE801B6428F0D828688003F7D4A9
:102250002078DFF8A08280074FF000093ED5DAF839
:102260000010504611F00C0F09D00068C0F3810037
:1022700002280BD19D48001F0068400206D4286840
:10228000800715D5E068012809D111E0E068B8B1F0
:102290000120C8F80000FFF7F9FD064605E020E13F
:1022A000FFF7F4FD801B0228C0D828688007F7D507
:1022B0002868216920F0F80040EAC10028600DE09C
:1022C000C8F80090FFF7E2FD064604E0FFF7DEFDE8
:1022D000801B02281FD828688007F7D420780007C1
:1022E00022D5824E844861696C3671B1012101604A
:1022F000FFF7CCFD074604E0FFF7C8FDC01B02282E
:1023000009D830688007F7D50EE0C0F80090FFF7D5
:10231000BDFD074605E082E0FFF7B8FDC01B0228BF
:102320007DD830688007F7D42078400768D5DFF87B
:10233000BCB100270BF1380BDBF80000C0000BD458
:10234000DBF8001041F08051CBF80010DBF8000002
:10235000012700F080500090684E3068C00510D40E
:10236000306840F480703060FFF790FD009005E029
:10237000FFF78CFD0099401A022850D83068C0053C
:10238000F6D55A4EA068683601280FD00528306867
:1023900010D020F001003060306820F00400306080
:1023A000A068B8B1FFF772FD00900FE0306840F010
:1023B0000100F4E740F004003060F7E7FFF766FD46
:1023C0000099411A41F28830814266D8306880070E
:1023D000F4D50EE0FFF75AFD009007E0FFF756FD39
:1023E0000099411A41F28830814256D830688007FE
:1023F000F4D42FB1DBF8001021F08051CBF800109D
:10240000A069D0B3DAF800205146C2F38102022A53
:102410004AD00228484607D0C8F8600000E03CE0F7
:10242000FFF734FD04463BE04746C8F86000FFF77D
:102430002DFD064605E000BFFFF728FD801B0228A2
:102440002BD828688001F7D4D4E907010843A16A92
:102450002B4A490802EB0141626A41EA82110843B2
:1024600094F82C1040EA01612048001F016001200F
:102470003866FFF70BFD044605E034E0FFF706FD84
:10248000001B022809D828688001F7D52BE000BF7F
:10249000FFF7FCFC001B022802D90320BDE8F88FDF
:1024A00028688001F4D41EE00128F7D00868E269AA
:1024B00000F48001914214D1226A00F03F01914260
:1024C0000FD147F6C071626A0140914209D1A26AF8
:1024D00000F44031914204D1E16A00F0706088421A
:1024E00001D00120DAE70020D8E7000008380240D8
:1024F0000038024000004742800E47420070004012
:102500000000FFFF10B5401EB0F1807F01D3012015
:1025100010BD4FF0E02460610F21601701F0A3FEB1
:102520000020A06107202061002010BD70B590F848
:102530003C20012A32D0012480F83C40022280F85D
:102540003D2003685A689D6822F070060A6832438D
:102550005A60134B02689A4214D0B2F1804F11D0E6
:10256000104B9A420ED0104B9A420BD00F4B9A420E
:1025700008D00F4B9A4205D00E4B9A4202D00E4B18
:102580009A4204D1496825F080031943916080F88C
:102590003D40002180F83C10084670BD022070BD0F
:1025A000000001400004004000080040000C004012
:1025B00000040140004001400018004010B5040034
:1025C00003D094F83D0010B107E0012010BD0020B9
:1025D00084F83C00204600F00DF8022084F83D000D
:1025E000211D206801F0C8F9012084F83D00002079
:1025F00010BD000008B50C4A01680C48914207D193
:10260000016841F004010160006800F0040009E085
:10261000074A914207D1016841F01001016000684A
:1026200000F01000009008BD000800404038024053
:1026300000100040022180F83D1001688A6802F015
:102640000702062A03D00A6842F001020A6001214B
:1026500080F83D100020704770B5044690F83C00AB
:10266000012817D0012584F83C50022084F83D0051
:102670002068826822F0770222F47F428260086834
:10268000502830D00DDC20284DD005DC98B3102820
:102690003BD148E0022070BD302844D0402834D1DE
:1026A00039E0602828D0702806D0B0F5805F2CD0A3
:1026B000B0F5005F29D10AE0CB68D1E9012120689B
:1026C00001F0BEF92068816841F0770109E0CB682C
:1026D000D1E90121206801F0B3F92068816841F453
:1026E0008041816011E0CA684968206801F07CFA85
:1026F0005021206807E016E0CA684968206801F0A8
:1027000084FA6021206801F0A5F984F83D5000208A
:1027100084F83C0070BDCA684968206801F064FA1A
:1027200040212068EFE7226801461046EBE70000F1
:1027300010B586B0044614216846FDF7EBFD0E493E
:102740002068884215D10D480021026842F002023B
:102750000260006800F0020005904FF400700090E5
:102760000220CDE90101CDE9031069460448FFF7D5
:102770009FFA06B010BD000000080040303802404B
:102780000004024070B5044690F83C000D46012854
:102790000DD0012684F83C60022084F83D0042B14F
:1027A000042A18D0082A2AD00C2A4DD139E0022058
:1027B00070BD206801F056F92068816941F0080178
:1027C00081612068816921F004018161206881694B
:1027D0002A69114311E0206801F074F920688169C9
:1027E00041F4006181612068816921F48061816127
:1027F000206881692A6941EA0221816124E0206818
:1028000001F096F92068C16941F00801C1612068B2
:10281000C16921F00401C1612068C1692A691143BD
:1028200011E0206801F0B8F92068C16941F4006145
:10283000C1612068C16921F48061C1612068C169FA
:102840002A6941EA0221C16184F83D60002084F8D0
:102850003C0070BD10B5040003D094F83D0010B1E9
:1028600007E0012010BD002084F83C00204600F065
:102870000CF8022084F83D00211D206801F07CF84E
:10288000012084F83D00002010BD70477047000013
:1028900070B5026804461068D168536910F00F0FD4
:1028A00053D003F0010501F490762E435FD0C207A8
:1028B00005D0CA0503D5E26B42F00102E26342078C
:1028C00005D5DA0703D0E26B42F00202E263820729
:1028D00005D5DA0703D0E26B42F00402E263020797
:1028E00007D501F020022A4303D0E26B42F0080230
:1028F000E263E26B002A34D0800604D5880602D554
:10290000204601F0AAF920684069E16BC0F380100D
:1029100001F008010143204624D001F090F920681D
:10292000416949061AD5416921F040014161606B56
:10293000A0B11B490165606BFFF76DF8002810D04E
:10294000606B016DBDE87040084783060FD58B06AC
:102950000DD52046BDE8704001F07FB92046FFF755
:1029600095FF70BDFFF792FF0020E06370BD030686
:1029700006D50B0604D52046BDE8704001F05EBACE
:102980004006F3D54806F1D5D168204621F0400134
:10299000D160202184F8391000F0CDF870BD00001E
:1029A0002F3C000870B5040004D094F839000025CD
:1029B00010B106E0012070BD84F83850204600F0C8
:1029C00023F8242084F839002068C16821F40051DC
:1029D000C160204601F09EF92068016921F4904110
:1029E00001612068416921F02A0141612068C168C4
:1029F00041F40051C160E563202084F8390084F877
:102A00003A00002070BD00002DE9F04186B0064676
:102A100014216846FDF77EFC3F4F31683F48022293
:102A2000032307250024B94255D13C4914310F68CE
:102A300047F010070F60096801F010010591016867
:102A400041F0010101600068694600F00100059055
:102A500058028DE81500CDE903353148FFF728F914
:102A6000314D30484FF000682860C5E901840715F2
:102A7000C5E903476C61F801AC61C5E90740284628
:102A80006C62FFF7ABF808B1FEF793F97563AE63BC
:102A9000254D244860357830E5E80208402091C58E
:102AA000800245F81449AC61C5E907401E486C62D4
:102AB0006030FFF793F808B1FEF77BF93563002229
:102AC00005212520AE63FFF753FA2520FFF742FAD0
:102AD00006B0BDE8F081154EB142F9D10F49103171
:102AE0000E6846F480260E60096801F48021059185
:102AF000016841F0080101600068694600F00800C3
:102B000005904FF440708DE81500CDE90335084875
:102B1000FFF7CEF8DCE7000000100140303802403B
:102B200000000240406402400C11002000480040B8
:102B3000000C024070477047FEE710B586B00446AF
:102B400014216846FDF7E6FBE06800901120019033
:102B500001200290032003906946A068FFF7A8F8BF
:102B600006B010BD10B5044600F091FEA089012208
:102B700081B2A068FFF784F9A088012281B22068A1
:102B8000FFF77EF90120FEF7B9F8A088002281B294
:102B90002068FFF775F90120FEF7B0F8A089002240
:102BA00081B2A068BDE81040FFF76AB910B50446CD
:102BB00000F06DFEA089002281B2A068FFF760F9E5
:102BC0000120FEF79BF8A088002281B22068FFF761
:102BD00057F90120FEF792F8A089012281B2A0687E
:102BE000FFF74EF90120FEF789F8A088012281B293
:102BF0002068FFF745F9BDE810400120FEF77EB8D8
:102C000070B5044680890D4681B20022A068FFF7A6
:102C100037F9204600F03BFEA08881B22068BDB1A4
:102C20005FF00102FFF72CF90120FEF767F8A08999
:102C3000012281B2A068FFF723F90120FEF75EF8B8
:102C4000A089002281B2A068BDE87040FFF718B9E2
:102C50000022E7E770B5002504462E4600F004FE8A
:102C6000A089002281B2A068FFF70AF90120FEF7CF
:102C700045F8A089012281B2A068FFF701F970062A
:102C8000060EA08881B22068FFF7EEF80643012007
:102C9000FEF734F86D1CEDB2082DE1D3304670BD5F
:102CA00070B504468089002281B2A068FFF7E8F879
:102CB000204600F0D9FD0120FEF720F8A08901226E
:102CC00081B2A068FFF7DCF80120FEF717F8A088B2
:102CD00081B22068FFF7C8F80546A089002281B2BA
:102CE000A068FFF7CDF8284670BD70B50E460446C3
:102CF00000F0CDFD0025A089002281B2A068FFF779
:102D0000BFF83006A08881B2206801D5012200E01A
:102D10000022FFF7B5F87006060E0120FDF7EEFF62
:102D2000A089012281B2A068FFF7AAF80120FDF76F
:102D3000E5FF6D1CEDB2082DDDD3A089002281B224
:102D4000A068BDE87040FFF79BB8000008B5002000
:102D500000906B4602220321402000F043F89DF8CA
:102D600000009DF80110000200B2084300EE100AB6
:102D70000248B8EEC00A80ED010A08BDCC0100206F
:102D800038B51548016841F0020101600068134C34
:102D900000F00200009012482115C0E902414900EC
:102DA000C0E90041FFF7C9FE0D4840211030C0E9DD
:102DB00002418021C0E90041FFF7BFFE44F2EF224B
:102DC0000021402000F05AF8BDE83840052140F2CB
:102DD000AB62402000F052B830380240000402409C
:102DE000AC0100202DE9F04106461D4614460F4671
:102DF0002148FFF7B7FE7006010E1F48FFF775FF69
:102E00001D48FFF74DFF012819D039461A48FFF732
:102E10006CFF1948FFF744FF01280FD01648FFF751
:102E2000A1FE012000EB4600C1B21348FFF75DFF91
:102E30001148FFF735FF012803D011E00220BDE85B
:102E4000F0810320FBE70C48012C10D0FFF702FFB4
:102E5000287000210848FFF7D3FE641EE4B26D1C01
:102E6000002CF0D10448FFF7A1FE0020E7E7FFF7B0
:102E7000F1FE28700121EDE7AC01002070B5054698
:102E800014460E461948FFF76DFE6806010E1748F6
:102E9000FFF72BFF1548FFF703FF01281ED031462F
:102EA0001248FFF722FF1148FFF7FAFE012816D05B
:102EB000210A0E48FFF719FF0C48FFF7F1FE012821
:102EC0000FD0E1B20948FFF710FF0848FFF7E8FE0E
:102ED000012808D00548FFF769FE002070BD0220D8
:102EE00070BD032070BD042070BD0000AC01002047
:102EF0007FB500241548009401940294124903946C
:102F000001604FF48031C0E901140461047680F857
:102F100020400F49C0E90A140125C561C46080F84A
:102F200030404561FEF713F808B1FDF742FFCDE9E7
:102F30000045694605480294FDF760FF002801D06E
:102F4000FDF737FF7FBD000000200140200B00206F
:102F50000100000F0F4810B50D49016003214160C9
:102F600000214FF400228160C0E903124FF44012A7
:102F70004261017641768176C17601774177FEF72D
:102F800078FB002803D0BDE81040FDF712BF10BD4C
:102F900000640040680B00200F4810B50D49016027
:102FA0000321416000214FF400228160C0E9031237
:102FB0004FF440124261017641768176C176017705
:102FC0004177FEF756FB002803D0BDE81040FDF71F
:102FD000F0BE10BD00680040900B00200D4808B501
:102FE000016841F4800101600068002200F4800063
:102FF000009005213A20FEF7BBFF3A20FEF7AAFF1A
:10300000002205214620FEF7B3FFBDE80840462018
:10301000FEF7A0BF3038024010B59CB01C22164904
:103020006846FDF75EF90021684602F025FA134C68
:1030300011491C2220601C3107A8FDF752F900211C
:1030400007A802F019FA0C4960601C2238310EA85A
:10305000FDF747F900210EA802F00EFA0649A0601C
:103060001C22543115A8FDF73CF9002115A802F0E7
:1030700003FAE0601CB010BDEC660008F800002008
:103080002DE9F04186B014216846FDF743F92E483A
:103090000024016841F010010160016801F0100195
:1030A0000591016841F080010160016801F0800133
:1030B0000591016841F001010160016801F0010121
:1030C0000591016841F002010160016801F002010F
:1030D0000591016841F00801016000681B4E00F095
:1030E00008000590002260213046FEF7C9FE184F07
:1030F000002206213846FEF7C3FEDFF85880002282
:103100000F214046FEF7BCFE602000900125CDE96E
:103110000154694630460394FEF7CAFD062000902C
:10312000CDE90154694638460394FEF7C1FD0F20EE
:103130000090CDE90154694640460394FEF7B8FD7E
:1031400006B0BDE8F08100003038024000100240B7
:1031500000000240000C024010B58EB0002407941D
:10316000089409940A940B941C2168460C94FDF76A
:10317000D1F81E481C49C0E9001445F20721C0E9F6
:10318000024104618461FFF719FA08B1FDF711FEED
:103190004FF48050079007A91448FFF75DFA08B173
:1031A000FDF707FE1148FFF755FB08B1FDF701FEDB
:1031B0000B940BA90D480C94FFF7B8F908B1FDF773
:1031C000F8FD6020CDE9000402940C22694607480E
:1031D0000494FFF7D7FA08B1FDF7EBFD0348FFF7BA
:1031E000A7FA0EB010BD0000000800400C1000202F
:1031F0001CB500240E4800940C490194C0E9001449
:103200004FF6FF71C0E902418461FFF7D7F908B1B9
:10321000FDF7CFFD0094694605480194FFF786F954
:10322000002801D0FDF7C5FD1CBD000000100040C6
:103230004C1000200C4810B50A4901604FF4E131F0
:103240004160002181600C22C160C0E904128161EB
:10325000C161FFF7A7FB002803D0BDE81040FDF7D0
:10326000A8BD10BD001001408C1000200C4810B506
:103270000A4901604FF4E1314160002181600C2274
:10328000C160C0E904128161C161FFF78BFB0028B6
:1032900003D0BDE81040FDF78CBD10BD00480040D4
:1032A000CC100020FEE77047A0B190ED112A80ED10
:1032B000122A90ED101A80ED111AC0ED060A80ED69
:1032C000070A30EEC00A80ED100A017829B1012901
:1032D0003BD08BE09FED470A7047D0ED010A60EECE
:1032E000801AC0ED0A1AD0ED0B0A90ED022A42EEC8
:1032F000000A30EE410AC0ED0B0A90ED0E2A80ED77
:103300000F2A90ED0D2A80ED0E2A80ED0D0A90ED2A
:10331000031A21EE001A80ED0C1A90ED050AF4EE66
:10332000C00AF1EE10FA09DCB1EE400AF4EEC00A70
:10333000F1EE10FA02D390ED0B0A01E080ED0B0ADA
:1033400031EE800A30EE010A3EE070EE410AD0ED27
:10335000011A60EEA11AC0ED0A1AD0ED020A60EE61
:10336000800AC0ED0B0AD0ED0E2AC0ED0F2AD0ED79
:103370000D2AC0ED0E2AF0EE002A01EE620A30EEB0
:10338000020A80ED0D0A90ED031A21EE001A80ED7D
:103390000C1A90ED050AF4EEC00AF1EE10FA09DC01
:1033A000B1EE400AF4EEC00AF1EE10FA02D390ED4D
:1033B0000B0A01E080ED0B0A31EE800AD0ED090A1C
:1033C00030EE010A30EE200A80ED090AD0ED040A41
:1033D000B4EEE00AF1EE10FA06DCF1EE600AB4EEAB
:1033E000E00AF1EE10FA01D2C0ED090A90ED090AE7
:1033F0007047000000000000002828D0002A26D0D6
:10340000017092ED001A80ED011A92ED011A80ED23
:10341000021A92ED021A80ED031A80ED040A9FED64
:103420000C0AC0ED050A80ED0F0A80ED0E0A80ED52
:103430000D0A80ED090A80ED0C0A80ED0B0A80ED83
:103440000A0A80ED120A80ED110A80ED100A704719
:10345000000000002DED028B84B03D4E3D4C9FEDF1
:103460003E8A00276D462770207800EBC00106EBEE
:1034700081010A8C098A12FB01F100EE101A05EB9A
:103480008001B8EEC00A81ED000AB5EEC00AF1EE87
:1034900010FA01D281ED008A401CC0B220700428CD
:1034A000E2D39DEC020A30EE200ADDED020A30EE96
:1034B000200ADDED030A30EE200ADFED280A20EEB7
:1034C000200A84ED010AFFF741FC224A921C02F116
:1034D0001201081F01F0B8FE94ED020ADFED200A88
:1034E0009FED201A214860EE200A94ED010ADFEDDD
:1034F000201A032140EE010A9FED1B1AC4ED010AB8
:1035000094ED030A20EE010A90ED011A01EE210A62
:1035100080ED010AC4ED020A84ED030A608800EE22
:10352000900A1448F8EE600AC0ED000AD4ED040ACF
:10353000C0ED010ADFED100A80EE201A80ED021ABC
:1035400080ED038AFDF7AAFB022001F089FF8AE7DC
:103550006C0A002028000020000000009C5349361F
:103560003333733FCDCC4C3D6666663FCC010020C3
:10357000CDCCCC3DA402002000002042F0B5284B69
:103580001C68656945F0400565611C68656945F022
:10359000800565611B68DC6844F01004DC60214B29
:1035A0001C68256825F0010525601C682568ED0765
:1035B000F7D11D4F4FF40015BC4202D91A4E4C3EB4
:1035C00004E01A4EB44203D9174E503E356008E06D
:1035D000164F164E603FB83EBC4201D9F56000E080
:1035E000B560134DA5601C68E0601868016118683B
:1035F00042601868016841F4802101601868016820
:1036000041F0010101600B4801680A6822F00102E3
:103610000A6001680A68D207F7D18D60F0BD00002A
:103620008C1000200C11002058640240B860024049
:10363000041001406C11002038B52849322001F0F7
:103640009BFE274800680168890603D50168406829
:10365000009038BD23490968C906FAD50168406859
:103660000090214801680A684FF4007413031F4A50
:103670000B6823F001030B6001684B68C3F500730E
:1036800013804C6012D401680A6842F400220A6078
:103690000068016841F0010101601549224601F509
:1036A0008060FCF71EFE2146114812E011498A6A2B
:1036B00022F400228A620068016841F00101016081
:1036C0000D4922460D4601F50070FCF70AFE214621
:1036D0002846BDE83840FCF71DBE000094010020DC
:1036E0008C100020001001400C1100204000002030
:1036F000C402002000600240C404002070B5154AD6
:1037000013681C6824F001041C6013681C68E4073B
:10371000F7D1114E4FF00064B34202D90E4D4C3D2B
:1037200004E00E4DAB4203D90B4D503D2C6008E038
:103730000A4E0A4D603EB83DB34201D9EC6000E04C
:10374000AC60D860106841601068016841F0010108
:10375000016070BD6C11002058640240B8600240E6
:1037600070B504462DED028BB0F90800204900EB3E
:10377000C00001EB800090ED050ABDEEC00A10EE1E
:10378000100A00B22080B4F90210421A01D40122BA
:1037900001E04FF0FF32E280C2EB021201EBC20106
:1037A0000DB2A580FCF749FF41EC100B00F0D0FDF5
:1037B000B0EE401AF0EE601AB0EE418AF0EE618A87
:1037C0002846FCF73AFF41EC100B00F0C1FD53EC2A
:1037D000182B51EC100BFCF785FF02D8B4F9000050
:1037E00001E0B4F90400A0806080BDEC028B70BDE4
:1037F0006C0A002088B002F02BF900F051FB02F0B7
:1038000029FD174C01902146042001F0B5FD154813
:1038100002F080F800F0C4FC04A903A801F0A2FDA6
:1038200002AA05A906A801F08DFD01F085FD9DF80D
:10383000081000919DED050A40B2BDEEC00A10EEE1
:10384000101A0BB2BDF80C100AB2BDF8101009B274
:1038500001F09CFA0F2101A802F054FBD3E700000D
:10386000A0010020C406002010B586B00446142133
:103870006846FCF74FFD6068009000200190012031
:10388000029069462068FEF713FA06B010BD10B525
:1038900086B0044614216846FCF73CFD6068009041
:1038A00011200190012002900320039069462068B6
:1038B000FEF7FEF906B010BD012001F0D1FDFBE7D7
:1038C00010B5FEF7E9FA02F0B7FC012803D0BDE815
:1038D000104002F043BC10BD30B593B030216846B3
:1038E000FCF718FD14210CA8FCF714FD194800255D
:1038F000016841F080510160006800F08050119033
:103900001548016841F4804101600068022400F418
:1039100080401190012003901020049000940694A0
:103920000820CDE90750A820CDE9090404200B9018
:103930006846FEF739FC0CA90F2081E831004FF4EE
:10394000A0500F90E002109005210CA8FEF742FB5A
:1039500013B030BD40380240007000400548016897
:1039600041F47001016003494FF000608039086044
:103970007047000088ED00E0F0B50268254C264D48
:10398000264E274F274B4FF0804CA04209D0604570
:1039900007D0A84205D0B04203D0B84201D0984227
:1039A00004D122F0700E4A6842EA0E02A0421BD0F7
:1039B000604519D0A84217D0B04215D0B84213D0F4
:1039C000984211D0184DA8420ED0184DA8420BD0E5
:1039D000174DA84208D0174DA84205D0164DA84251
:1039E00002D0164DA84203D122F44075CA682A437A
:1039F0004D6922F080022A4302608A68C2620A6826
:103A00008262A04201D0984201D10969016301217B
:103A10004161F0BD0000014000040040000800408A
:103A2000000C0040000401400040014000440140FF
:103A30000048014000180040001C004000200040E9
:103A400010B5846842EA032224F47F440A432243E7
:103A5000826010BD826822F070020A4342F00701C2
:103A600081607047F0B5026A22F001020262036AC7
:103A700042688469124E24F073050C682C4323F0CD
:103A800002058B682B430D4DA84201D0B04205D1F1
:103A900023F00807CB683B4323F00403A84201D07E
:103AA000B04205D14D6922F4407215438A692A4318
:103AB00042608461496841630362F0BD00000140D7
:103AC00000040140F0B5026A22F010020262026AAC
:103AD000436884690D6824F4E64444EA05248D684B
:103AE00022F0200242EA05120F4D104EA84201D0EA
:103AF000B04206D1CF6822F0800242EA071222F0DB
:103B00004002A84201D0B04207D14D6923F440637E
:103B100043EA85038D6943EA85034360846149680C
:103B200081630262F0BD000000000140000401401A
:103B3000F0B5026A22F480720262026A4368C469C4
:103B400022F4007224F073050C68124E2C438D6829
:103B500042EA05220E4DA84201D0B04206D1CF68FC
:103B600022F4006242EA072222F48062A84201D0D5
:103B7000B04207D14D6923F4405343EA05138D69E0
:103B800043EA05134360C4614968C1630262F0BD42
:103B9000000001400004014030B5026A22F4805266
:103BA0000262046A4268C3690D6823F4E64343EA8B
:103BB00005238D6824F4005444EA0534084DA842D6
:103BC00002D0084DA84204D14D6922F4804242EA55
:103BD00085124260C36149680164046230BD00001F
:103BE000000001400004014010B5036A046A24F09B
:103BF00001040462846924F0F00444EA021423F00E
:103C00000A020A438461026210BD10B5036A23F000
:103C1000100303628369046A23F4704343EA0232A7
:103C200024F0A00343EA01118261016210BD10B5C6
:103C3000806B0021C185C184FEF728FE10BD01689C
:103C4000CA6822F49072CA6001684A6922F00102CF
:103C50004A61202180F83A10704710B590F83A1068
:103C6000222901D0022010BD8168B1F5805F11D0FA
:103C70000169002901681FD0496801F07F03816A4A
:103C80004A1C82620B70C18D491E0904090CC18552
:103C900018D02BE00269816A002A0268526805D0B8
:103CA000D2B20A80816A491C8162ECE7C2F3080241
:103CB0000A80816A891CF7E74A68816A4B1C836223
:103CC0000A70E0E70168CA6822F02002CA60016851
:103CD000CA6822F48072CA6001684A6922F001024F
:103CE0004A61202180F83A10FEF724FF002010BD21
:103CF00030B5074B00221C1D06E01D686D06FCD583
:103D0000855C2560521CD2B28A42F6D330BD0000D9
:103D1000004800402DE9F041044600680169E2686E
:103D200021F44051114301612169A068E26908430F
:103D30006169114308432168CA6849F20C639A43D8
:103D40000243CA6020684169A26921F440711143AD
:103D50004161E069192764253226B0F5004F354AE4
:103D6000354920684FF0000806D0884201D09042C3
:103D700036D1FEF7D9F935E0884201D0904202D120
:103D8000FEF7D2F901E0FEF7BFF961684A18A0FB1F
:103D9000070148EB0803FCF773FA0146B0FBF5F0A6
:103DA0000201B1FBF5F06FF01803584301EB8000FE
:103DB00006EBC000B0FBF5F000F0F80002EB4002AB
:103DC000B1FBF5F0584301EB800006EBC000B0FBFF
:103DD000F5F000F00700216810448860BDE8F0812C
:103DE000FEF792F961688B0F8A00A0FB0701FCF7D0
:103DF00047FA0146B0FBF5F06FF01802504301EBB3
:103E0000800006EB0010B0FBF5F000F0F002B1FB13
:103E1000F5F002EB0012B1FBF5F06FF01803584318
:103E200001EB800006EB0010B0FBF5F000F00F0096
:103E3000D1E70000001401400010014090F8391053
:103E4000212901D0022070478168B1F5805F016AA5
:103E50000BD04A1C0262026809785160C18C491E6D
:103E60000904090CC1840ED017E009880268C1F367
:103E70000801516001690029016A02D0491C0162F0
:103E8000ECE7891CFBE70168CA6822F08002CA607F
:103E90000068C16841F04001C16000207047000027
:103EA00070B5BE4CA520012504F80F096F202082B3
:103EB000A5740521B948FCF713FE40F20130A08239
:103EC0004FF48270E082682020834FF4B47024F8AD
:103ED0001A0F0020A070E070257114F8051F6423EC
:103EE00021F00701491C21F038012170218821F4BB
:103EF000707140312180617821F03C010C3161709A
:103F0000A1886FF30901091DA180B4F8052040F2D2
:103F1000253161F38C02A4F80520E28863F34F1287
:103F2000E280B4F809204B1F61F38C02A4F8092049
:103F3000628963F34F126281207360730222A2735D
:103F4000E27B22F00702521C22F03802E273B4F83E
:103F50000F2022F470724032A4F80F20227C22F04D
:103F60003C020C322274B4F813206FF30902121DC4
:103F7000A4F81320A28AC82361F38C02A282B4F8A9
:103F8000152063F34F12A4F81520258B40F252320E
:103F900062F38C052583B4F8195063F34F15A4F828
:103FA0001950E076207703236377A37F23F007037C
:103FB0005B1C23F03803A377E38B23F47073403347
:103FC000E383E37F23F03C032033E377638C6FF3D9
:103FD00009031B1D6384B4F8233061F38C03A4F838
:103FE0002330A58C4FF4967363F34F15A58434F8F2
:103FF000275F62F38C0524F8015B258863F34F1576
:1040000024F8025B042304F8010B04F8010B04F804
:10401000013B237823F007035B1C23F03803237054
:10402000238823F4707340332380637823F03C03A8
:104030000C336370A3886FF309031B1DA380B4F8CE
:10404000053061F38C03A4F80530E5884FF4C8739C
:1040500063F34F15E580B4F8095062F38C05A4F8BA
:104060000950658963F34F156581207360730523DB
:10407000A37314F80F3F23F007035B1C23F03803EE
:104080002370238823F4707340332380637823F0F4
:104090003C0320336370A3886FF309031B1DA380C7
:1040A000B4F8053061F38C03A4F80530E5884FF4CB
:1040B000FA7363F34F15E580B4F8095062F38C0589
:1040C000A4F80950658963F34F1565812073607307
:1040D0000623A37314F80F3F23F007035B1C23F0A0
:1040E00038032370238823F470734033238063786C
:1040F00023F03C030C336370A3886FF309031B1D8B
:10410000A380B4F8053061F38C03A4F80530E5888A
:104110004FF4167363F34F15E58034F8095F62F3CB
:104120008C0524F8015B258863F34F1524F8025BA6
:1041300004F8010B04F8010B07202070607820F0D0
:104140000700401C20F038006070B4F8010020F433
:1041500070704030A4F80100A07820F03C002030BE
:10416000A070B4F805006FF30900001DA4F8050065
:10417000E08861F38C00E08034F8071F4FF42F7063
:1041800060F34F1124F8031B218862F38C0124F89B
:10419000011B218860F34F11218070BD2C0200208B
:1041A00010B578210448FCF787FCBDE81040782161
:1041B0000148FFF7A3BA00002C02002010B5034805
:1041C000FEF766FBBDE81040FFF736BA8C10002002
:1041D000FEE7000030B50C46050014D0022C12D9C1
:1041E0000A48A11EC2882846FCF7E4FD2919C2B27C
:1041F00011F8023C9A4206D111F8011CB1EB102FC4
:1042000001D1012030BD002030BD000000000020A1
:1042100030B50C4605000CD0022C0AD9FF22611ED5
:10422000FCF7DEFD291911F8011C814201D10120A2
:1042300030BD002030BD03B401984100009850EA21
:10424000C12018BF04204A0D18BF40F0010040F201
:10425000FF72B2EB515F08BF40F00200012808BFB7
:10426000052002B070470907090E002804DB00F1A1
:10427000E02080F80014704700F00F0000F1E0200B
:1042800080F8141D7047000010B52F499FED2C1BBE
:104290002DED020B84B0059820F000408842D8BF75
:1042A0009DED040B2DDD2949884209D1049840B9C0
:1042B0004FF0010000F0E0FC00F0AEFC06B010BDD5
:1042C00005DB9DED040B00F09BFC06B010BD6846BD
:1042D0009DED040B00F0ACF810F0030004BF9DED61
:1042E000021B9DED000B0CD001280ED09DED021B92
:1042F0009DED000B022817D0012000F0E9FB06B06D
:1043000010BD00F0B1FA06B010BD9DED021B9DED91
:10431000000B012000F0DCFB51EC100B81F00041A0
:1043200006B041EC100B10BD00F09EFA51EC100BE2
:1043300081F0004106B041EC100B10BD0000000000
:104340000000000000000000FB21E93F0000F07FBA
:104350002DED020B019820F0004001909DED000B27
:1043600002B070470000000010B52F499FED2C1BD4
:104370002DED020B84B0059820F000408842DCBF90
:1043800000209DED040B32DD2849884209D10498B4
:1043900040B94FF0010000F06FFC00F03DFC06B0AA
:1043A00010BD05DB9DED040B00F02AFC06B010BD2E
:1043B00068469DED040B00F03BF810F0030011D0AF
:1043C000012818D09DED021B9DED000B02281AD08C
:1043D00000F04AFA51EC100B81F0004106B041ECBC
:1043E000100B10BD9DED021B9DED000B012000F098
:1043F0006FFB06B010BD9DED021B9DED000B00F0A4
:1044000033FA06B010BD012000F062FB51EC100B36
:1044100081F0004106B041EC100B10BD000000001F
:104420000000000000000000FB21E93F0000F07FD9
:104430002DE9F14F04462DED020B2DED088B8AB0CE
:104440009FEDE70B80ED020B139EE74826F0004539
:1044500085420ADC9DED120B002084ED000B0AB0B2
:10446000BDEC088B03B0BDE8F08FE0489FEDE0ABFA
:104470009FEDE1BBA84247DDE14F9FEDE39B9FED40
:10448000E48B9DED120B53EC1A2B51EC100B002E0C
:104490001CDDFBF7EBFF41EC100BBD4208D053ECE9
:1044A0001B2B51EC100BFBF7E1FFC4E900010BE003
:1044B00053EC192B51EC100BFBF7D8FF53EC182BD6
:1044C000FBF7D4FFC4E900010120C8E7FBF72DFF8B
:1044D00041EC100BBD4208D053EC1B2B51EC100BE0
:1044E000FBF723FFC4E900010BE053EC192B51EC5F
:1044F000100BFBF71AFF53EC182BFBF716FFC4E960
:1045000000014FF0FF30AAE7C348A84279DB9DEDD8
:10451000120B51EC100B00F08BFE41EC180B9FEDD1
:10452000C00B53EC102BFBF7A7FF9FEDBF1B53EC09
:10453000112BFBF7FAFEFCF7EEF90746FCF77DF8C6
:1045400041EC190B53EC1A2BFBF796FF53EC182B8D
:10455000FBF78FFF41EC180B53EC1B2B51EC190BA5
:10456000FBF78AFFDFF8C8A241EC100B4FEA1558A1
:104570000125FA4453EC102B51EC180BFBF776FF96
:10458000032DC4E900013DD0C1F30A5005EB4511EC
:10459000A8EB00001139814234DA0AEB051BB0EEBA
:1045A00048AA9BED000BF0EE68AA53EC102B51ECDF
:1045B000190BFBF761FF41EC1B0B51EC1A0B53EC91
:1045C0001B2BFBF753FF41EC180B51EC1A0B53EC70
:1045D000182BFBF74BFF53EC1B2BFBF747FF9BED17
:1045E000020B41EC1A0B53EC102B51EC190BFBF79F
:1045F00043FF53EC1A2BFBF739FF41EC100B6D1CFA
:10460000B8E70EE0002EA8BF3846BFF628AF94EDFD
:10461000000B51EC100B81F00041C4E9000178421D
:104620001DE7C6F3130040F4801EC6F30A50A0F243
:10463000F530471100F01F05C5F12000DDF848B046
:1046400008900020069007900520EC467949002D3F
:1046500007EB0002794408BF51F8221009D051F845
:10466000223001EB8201AB404A68089922FA01F13D
:104670001943A1FB0E26A1FB0B131A449A4234BF27
:104680000123002303EB06080CEB8003D3E901A60A
:104690000E448E4234BF0121002192448A4411B15C
:1046A000924502D903E0924501D2012100E00021A8
:1046B000C3E901A641444CF82010011EA0F10100FD
:1046C000C4DC029800F10050850F0298DDE9036711
:1046D0008000DDF81480FBF7B0FF41EC1A0B304688
:1046E000FCF70CF99FED541B53EC112BFBF7C4FEA8
:1046F00041EC1B0B3846FCF701F99FED511B53ECC5
:10470000112BFBF7B9FE41EC180B4046FCF7F6F80D
:104710009FED4D1B53EC112BFBF7AEFE41EC190B3B
:1047200051EC180B53EC192BFBF7FFFD53EC1B2B33
:10473000FBF7FBFD53EC1A2BFBF7F7FDCDE9080166
:10474000002008909DED080B53EC1A2B51EC100B38
:10475000FBF78CFE53EC1B2BFBF788FE53EC182B5E
:10476000FBF784FE53EC192BFBF783FE9FED381B00
:1047700053EC112BFBF780FE9FED370B41EC180B30
:1047800053EC102B9DED080B51EC100BFBF774FE56
:1047900053EC182BFBF7C9FD9FED310B41EC180BC7
:1047A00053EC102B9DED080B51EC100BFBF764FE46
:1047B00053EC182BFBF7B9FD41EC100B139810F0DC
:1047C000004F06D06D4251EC100B81F0004141ECDE
:1047D000100B284684ED000B41E6000000000000AD
:1047E0000000000000000000FB21E93F7CD90240EE
:1047F00000004054FB21F93F3163621A61B4D03D9F
:10480000FB21F93F000000000000601A61B4D03DB8
:104810007370032E8A19A33BFB213941000000006D
:1048200083C8C96D305FE43F000000000000E03F36
:104830003A22000088210000000000000000103E25
:10484000000000000000103C000000000000103AD2
:10485000182D4454FB21F93D3326A611460B113C7B
:1048600000000054FB21F93D10B52DED040B2DED9A
:10487000088B82B0B0EE419AF0EE619A0B9820F06E
:1048800000449FED4BABB4F1795F11DA9DED0A0B5B
:1048900051EC100BFCF73FF8002801BFB0EE4A0ABC
:1048A000F0EE6A0A02B0BDEC088B04BF04B010BD84
:1048B0009DED0A0B53EC102B51EC100BFBF7DCFDBC
:1048C00041EC180B3C480621B0EE480AF0EE680AAD
:1048D000784400F081F853EC182B51EC100BFBF7E7
:1048E000CBFD9DED0A0B41EC1B0B53EC192B51EC4E
:1048F000100BFBF7C1FD41EC190B53EC1B2B51ECDA
:10490000180BFBF7B9FD53EC192BFBF7AFFD9FED2F
:104910002C0B41EC190B53EC102B51EC180BFBF743
:10492000ABFD41EC100B2848844210DA53EC192BF4
:1049300051EC100BFBF79AFD53EC1A2BFBF799FD8A
:1049400041EC100B02B0BDEC088B04B010BD1F4849
:10495000A042BCBF9FED1E1B8DED001B06DBA4F526
:1049600000100190002000909DED001B51EC100BF9
:1049700053EC112BFBF77AFD9DED000B41EC180B6E
:1049800053EC102B51EC1A0BFBF770FD41EC1A0B9A
:1049900053EC192B51EC180BFBF768FD53EC1A2B59
:1049A000FBF767FD41EC100BCCE7000000000000B6
:1049B000000000000000F03FAC1E000000000000FE
:1049C000000000000000E03F3333D33F0000E93F28
:1049D000000000000000D23F70B504462DED028BB0
:1049E0004D1E00EBC500B0EE408AF0EE608A90EDFF
:1049F000000B35F0060017D053EC182B51EC100BC0
:104A0000FBF73AFD41EC100B6D1E04EBC50090ED79
:104A1000001B51EC100B53EC112BFBF786FC41EC07
:104A2000100B35F00600E7D1022D36D0042D1CD036
:104A3000062D1CBFBDEC028B70BD53EC182B51EC46
:104A4000100BFBF719FD94ED0A1B53EC112BFBF730
:104A50006CFC53EC182BFBF70FFD94ED081B53EC8B
:104A6000112BFBF762FC41EC100B53EC182B51ECB3
:104A7000100BFBF701FD94ED061B53EC112BFBF71C
:104A800054FC53EC182BFBF7F7FC94ED040B53ECA0
:104A9000102BFBF74AFC41EC100B53EC182B51EC9C
:104AA000100BFBF7E9FC94ED021B53EC112BFBF709
:104AB0003CFC53EC182BFBF7DFFC94ED001B53EC94
:104AC000112BFBF732FCBDEC028B41EC100B70BDDF
:104AD00031B504462DED040B2DED0A8BB0EE41BA35
:104AE000F0EE61BA0B989DED0A0B20F00040B0F19A
:104AF000795F0DDA51EC100BFFF79DFB042808BF1E
:104B000000F09AF89DED0A0BBDEC0A8B05B030BDA4
:104B100053EC102B51EC100BFBF7AEFC41EC180BD7
:104B20009DED0A0B53EC182B51EC100BFBF7A4FC7A
:104B300041EC190B2C48B0EE480AF0EE680A05214A
:104B40007844FFF749FF9FED2ACBB0EE40AAF0EE84
:104B500060AA9CB353EC1C2B51EC190BFBF78CFC9B
:104B600041EC1C0B53EC1A2B51EC190BFBF784FC9A
:104B70009FED210B41EC190B53EC102B51EC1B0B4F
:104B8000FBF77AFC53EC192BFBF770FC53EC182B5A
:104B9000FBF772FC53EC1B2BFBF768FC53EC1C2B54
:104BA000FBF764FC9DED0A1B53EC112BFBF761FC3A
:104BB000BDEC0A8B05B041EC100B30BDFFE753ECA8
:104BC0001A2B51EC180BFBF757FC53EC1C2BFBF783
:104BD000ACFB53EC192BFBF74FFC9DED0A1B53EC80
:104BE000112BFBF7A2FBE3E7341D000000000000DF
:104BF000495555555555C5BF000000000000E03F20
:104C000010B553EC102B51EC100BFBF78EFB41EC65
:104C1000100B10BD000000009FED050B10B553EC0C
:104C2000102B51EC100BFBF799FC41EC100B10BD55
:104C300000000000000000009FED050B10B553ECD4
:104C4000102B51EC100BFBF717FC41EC100B10BDB7
:104C5000000000000000001002E008C8121F08C198
:104C6000002AFAD170477047002001E001C1121FED
:104C7000002AFBD17047000001490860704700001E
:104C80007801002010B50D4A04460120C2E9001049
:104C90000720906011462046FCF7B0F808B1FCF7F9
:104CA00088F82046FCF700FA0A212046FCF7AAF90A
:104CB0002046FCF749F980B210BD0000B402002084
:104CC00030B58BB0FEF746F900200121009001902D
:104CD00002900390CDE9051004900E2008910791F1
:104CE000099069460F48FCF7CBFA0446FEF754F9E1
:104CF0000F20059069460C48FCF7C2FA40EA04050B
:104D00000848FCF755FE0848FCF752FE022105480A
:104D1000FCF740FA02210448FCF73CFA0BB02846A5
:104D200030BD0000680B0020900B002030B589B02A
:104D300000244FF400750395019402940094082513
:104D40000594CDE906458DF82040040A8DF804400D
:104D50008DF80500080A8DF80600100A8DF8080085
:104D60008DF80920180A8DF80A008DF807108DF8C3
:104D70000B306B4601AA03A90348FCF71DFA009803
:104D800009B0C0B230BD0000680B002070B58AB019
:104D9000002406260396019402940826CDE90646CF
:104DA0008DF80400080A8DF805008DF80610100A29
:104DB0008DF807008DF80820180A8DF809008DF885
:104DC0000A300E9D009405948DF820408DF80B500C
:104DD0006B4601AA03A90348FCF7EEF900980AB054
:104DE000C0B270BD900B002010B5094C0122042107
:104DF0002046FDF745F8002202212046FDF740F845
:104E00000122BDE8104020210248FDF739B800001A
:104E1000000002400010024070B5464A02F1100145
:104E20002DED088B081F00F00FFA424DF2EE040A38
:104E3000414C95ED040A30EE608A85ED028A94EDCE
:104E4000420AB0EEC00A10EE100AFBF720FC94ED07
:104E50002F0A41EC1A0BB0EEC00A10EE100AFBF755
:104E600016FC94ED1C0A41EC190BB0EEC00A10EED2
:104E7000100AFBF70CFC94ED090A41EC1B0BB0EE99
:104E8000C00A10EE100AFBF702FC53EC1B2BFBF7D9
:104E90004CFA53EC192BFBF748FA53EC1A2BFBF79F
:104EA00044FA9FED261B53EC112BFBF7E5FA9FED1F
:104EB000251B53EC112BFBF751FBFBF7CFFB80B20B
:104EC00000EE100AB5EEC08AB8EE400AF1EE10FA14
:104ED00085ED010A06DDFCEEC80A10EE900AC0EB73
:104EE000001000E0288880B200EE900A2880F8EEDA
:104EF000600AB4EEE00AF1EE10FA17DD5FF000018F
:104F000001EB410200EE900A02EB011204EB820277
:104F1000F8EE600A92ED091A491CC9B261EE200A46
:104F2000032980EE801A82ED091AE9D9BDEC088BBD
:104F300070BD000098000020F00800200000000074
:104F4000000038400000000000408F4070B5254D43
:104F500004462DED048B2889A0F580500438FBF71A
:104F60006CFB9FED219B53EC192BFBF785FA41EC71
:104F7000100BFFF789F951EC100BFBF7CBFB08EE98
:104F8000100A2889A0F580500438FBF756FB53EC33
:104F9000192BFBF771FA41EC100BFFF7E5F951EC17
:104FA000100BFBF7B7FB00EE100A94ED001AD4EDDE
:104FB000010A0F4861EE001A21EE081A40EE881A25
:104FC00000EEC01AF1EE080AC4ED031A84ED041ACB
:104FD00090ED060A20EE200A84ED050ABDEC048B54
:104FE00070BD0000FC0A00205D8940F50F22493F9A
:104FF000C40800202DE9F0411B4E1C4F00242DED6C
:10500000028B9FED178B00BF04EBC40006EB8005FD
:10501000B5F91000FBF711FB41EC100BFFF798F905
:1050200053EC182B51EC100BFBF744FB01D2002082
:105030002882B5F91000D5ED050A00EE100A04EB40
:10504000440000EB0410B8EEC00A07EB8000FEF746
:105050002BF9641C042CD7DBBDEC028BBDE8F0817E
:1050600000000000000034406C0A0020F00800201E
:105070004148B2EE080A90F90430B0F90020B0F9C6
:1050800002009FED3E1A3E49DFED3E0A012B23D080
:10509000032B32D0C1ED050AC1ED060A3A48838BD5
:1050A000022B3BD0394A1289A2F58052043A012BD7
:1050B0003BD0062B40D06F2B49D0334900202C31F8
:1050C00000EB400202EB001201EB8202401CC2ED39
:1050D000090A0428F4DB704701EE902AF8EEE11A81
:1050E00061EE811A61EE801AC1ED051A01EE900A97
:1050F000F8EEE11A61EE811A0BE001EE902AF8EE6B
:10510000E11A61EE801AC1ED051A01EE900AF8EE7F
:10511000E11A21EE800A81ED060ABFE7C0ED000A20
:10512000C0ED010AC0ED060A704791ED050A80ED59
:10513000000A91ED060A16E091ED050A80ED000ADD
:1051400091ED060A80ED010A80ED061A7047D1ED57
:10515000050AB6EE000A60EE800AC0ED000AD1ED45
:10516000060A20EE800A80ED010A00EE102AB8EE51
:10517000C00A80ED060A7047EC00002000001644CB
:105180009800002000000000C4080020FC0A002055
:10519000244810B590ED031AD0ED040A90ED050AED
:1051A000214C71EE201A203071EEC01AC4ED051AA0
:1051B00071EE601A71EEC01AC4ED0E1A70EEC11ACB
:1051C000B1EE411A71EE600A71EEC01A30EEC00AFB
:1051D000C4ED171A84ED200AFEF7C2FA00EE100A99
:1051E0001248B8EEC00A84ED050AFEF7B9FA00EEDF
:1051F000100A0E48B8EEC00A0A3084ED0E0AFEF717
:10520000AFFA00EE100A0948B8EEC00A143084ED77
:10521000170AFEF7A5FA00EE100AB8EEC00A84EDF0
:10522000200A10BDC40800206C0A0020B400002031
:1052300082B0CDE9000121F0004001909DED000B0E
:1052400002B051EC100B7047074B10B55C6804605E
:10525000188900EE100AA3F11200B8EE400A81EDA1
:10526000000A007C108010BD0E0200207FB52A4C81
:10527000DFED2A0A00226B4602EBC20504EB85052E
:105280002E8C2D8A16FB05F500EE105A03EB8205D5
:10529000B8EEC00A85ED000AB5EEC00AF1EE10FACC
:1052A00001D2C5ED000A521C042AE5DB9DEC020A7E
:1052B0001C4A1D4BDFED1D1A30EE200ADDED020AFF
:1052C00030EE200ADDED030A30EE200ADFED140A8D
:1052D00060EE200AC2ED010A93ED011A81EE210A67
:1052E000DFED131A82ED030A92ED021A21EE212A54
:1052F0009FED101A00EE812A80ED002A92ED042A1B
:1053000062EE211A40EE011AC1ED001AC2ED020A46
:1053100082ED040A7FBD00006C0A0020000000003E
:105320009C53493644000020CC010020000020425C
:105330003333733FCDCC4C3D0148007870470000BB
:10534000FC010020054B10B55C780470D3F8020016
:1053500008600348807B107010BD00002200002010
:10536000FC010020034A1289028002481230408961
:1053700008807047FC0100200A7A521CD2B20A72DF
:10538000824204D100200872084600F02FB870470E
:1053900010B586B014216846FAF7BCFF1048002209
:1053A000016841F00401016000680F4900F0040049
:1053B00005900C480123C1E900030224C1E903045C
:1053C0000424C1E906040824C1E909040F2100915D
:1053D000CDE9013269460392FCF76AFC06B010BDC4
:1053E00030380240000C02407C01002081880068B7
:1053F00089B2FCF73EBD0000FCF756FD4FF4FA7091
:1054000000E0641C8442FCDBFEF766FAFDF738FE20
:10541000FDF7E4FDFDF72AFFFDF79CFDFDF7BCFD60
:10542000FDF7E6FEFDF706FFFDF762FDFDF794FED2
:10543000FFF746FCFBF762FBFFF7AAFF0022022101
:105440000348FCF71DFDFDF7E7FD00F010F8FEE74F
:105450000004024001460020842900D0C81C704787
:1054600010B500B9012000F027FD002010BD10B5D7
:1054700000F08EFD002010BD7FB50D460446416949
:10548000B0F9080081B1A16971B1FFF7E3FFD4E978
:1054900005128DE80700D4E900102B46226900F0C0
:1054A000A0FE039004B070BDFFF7D4FF03A9CDE9BF
:1054B0000001208A2B4682B2D4E9001000F064FE7D
:1054C000012801D00020EDE70398EBE72DE9F0413A
:1054D000184C0F46054666692068001D00F026FC42
:1054E00038B9206890F82C1001208840A1698143C8
:1054F000A161681C07D137B12168BDE8F0410E48B1
:10550000091D00F059BC20683544B542456021684A
:1055100005D2A068BDE8F041091D00F035BC606807
:10552000091D00F031FC206B854200D22563BDE8E7
:10553000F0810000180100205C1300202DE9F041EB
:10554000054600F045FC2D4C2069401C2061206878
:105550002B4F10B1E06930B32BE0256020690128A2
:1055600027D1002606EB860007EB800000F0FEFB4B
:10557000761C102EF6D3234800F0F8FB2148143097
:1055800000F0F4FB1F48283000F0F0FB1D483C30D1
:1055900000F0ECFB1B48503000F0E8FB194860605D
:1055A0001430A06005E02068E96AC06A884200D82B
:1055B0002560E06A401CE062E96A0120A269884037
:1055C0001043A06101EB810007EB8000291D00F072
:1055D000F3FB00F01DFCE06900280CD02068E96AAC
:1055E000C06A884207D208494FF080500860BFF374
:1055F0004F8FBFF36F8FBDE8F081000018010020CE
:10560000CC1100200C13002004ED00E010B504467E
:1056100090F8510058B101280CD002280FD050202A
:1056200080F31188BFF34F8FBFF36F8FFEE7206BBE
:1056300000F002FC2046BDE8104000F0FDBB10BDAC
:1056400010484FF47051420706D0C01D0D4920F09C
:105650000700411AC1F570510B4A00230144C2E909
:1056600000030839103A21F0070111604B600B600C
:105670000B1AC0E9001393604FF000405360D060F4
:10568000704700007013002064010020144E154C78
:10569000A6F5BE774FF08058DFF84C9012E000BFBF
:1056A00000F096FBF068C568281D00F03FFB2069FC
:1056B000401E2061E068401EE06000F0A9FB284623
:1056C000FFF7A4FFE0680028EAD138680128F9D97B
:1056D000C9F80080BFF34F8FBFF36F8FF2E7000070
:1056E000481300201801002004ED00E02DE9F047E8
:1056F0009A46DDE9098481466FF00303206B03EBD2
:1057000082021044089D20F00706700707D0502041
:1057100080F31188BFF34F8FBFF36F8FFEE723181D
:105720000A5C83F834200A5C12B1401C1028F6D3BE
:10573000002784F84370102D00D30F25E562C4E9DB
:105740001157201D00F01DFB04F1180000F019FB9B
:105750002461C5F110006462A061E76484F85070B0
:1057600052464946304600F0BFF82060B8F1000FBD
:1057700001D0C8F80040BDE8F087000030B51149FD
:1057800000E011460A688242FBD34B685C188442F1
:1057900003D1406818444860084643681C18944286
:1057A00009D1084C103C2468A24209D052681A441E
:1057B00042600A6812680260814200D0086030BD11
:1057C0000460F9E76401002006484168096829B1CE
:1057D0004168C968C9684968016370474FF0FF3183
:1057E000FAE700001801002008484068401C4FF00C
:1057F000500080F3118804D0BFF34F8FBFF36F8F39
:10580000FEE7BFF34F8FBFF36F8FFEE76C01002001
:105810002DE9F0410546002700F0F0FB314E3068DD
:1058200008B9FFF70DFFF06805424BD1C5B3083545
:1058300068070ED005F00700C0F1080005446807AE
:1058400007D0502080F31188BFF34F8FBFF36F8FC5
:10585000FEE72DB37068854234D8224810300146E7
:105860000C6801E020460C466168A94202D221681A
:105870000029F7D131688C4224D007682168016083
:1058800060680837411B10290FD96019420708D0FA
:10589000502080F31188BFF34F8FBFF36F8FFEE767
:1058A00010E041606560FFF769FF61687068401A49
:1058B0007060B268904200D2B060F068014300208E
:1058C000C4E9000100F030FD780707D0502080F3D4
:1058D0001188BFF34F8FBFF36F8FFEE73846BDE8E7
:1058E000F08100005401002010B5031F4FF08074B8
:1058F0001C601B1F21F001011960191F044B0B6074
:1059000014390A60091F6FF0020244380A6010BDA2
:10591000E957000870B504000AD04B4D2068C5F85F
:105920001D00207985F821002078A52803D088E083
:105930004FF0FF3070BD05212046FEF769FC0128BD
:1059400074D1617820460931FEF744FC01286DD1FD
:10595000B4F8050040F20512A0F2051190423ED0C5
:1059600012DC042826D006DC012816D002281AD022
:1059700003285BD11AE0A0F58070013821D00128FE
:1059800024D0032852D126E0FC3907294ED2DFE883
:1059900001F0292E333A3D434600B4F80700A881B0
:1059A000607AA87342E0E07928703FE02022E11D90
:1059B000264825E0B4F80700A5F80F00607A68745F
:1059C00034E0D4F80700C5F815002FE0D4F807003C
:1059D000C5F819002AE0B4F80700288126E0E0792C
:1059E000687023E019481222E11D203008E01748B2
:1059F0001022E11D323003E014481022E11D403036
:105A0000FAF76FFC12E0E079A8700FE0B4F8070035
:105A10006882607A287509E0E079E87006E0D4F8D9
:105A20000700C5F82200B4F80B00E88406480934E2
:105A30001D30B0F80100015DA52902D12044FFF717
:105A400069FF002070BD000000000020DC01002084
:105A500003494FF40072A1F50070FDF78FBD0000FF
:105A6000C40400202DE9F041164E174F0025B06800
:105A7000164C4FF00108B84201DC257004E01449CF
:105A8000884201DB84F8008000F026F81148807914
:105A9000012805D1B068B84202DD2078012809D07C
:105AA00065706078012808D0FFF79EF9BDE8F041E5
:105AB000FFF7B2B984F80180F3E7BDE8F04100F0E8
:105AC00005B90000CC010020000040414400002046
:105AD00000009841EC00002070B5704A02F11601F8
