:020000040800F2
:10000000685200205D0200081B3900081F300008FC
:1000100019390008810B0008B547000800000000EE
:100020000000000000000000000000009D0100082A
:10003000090D000800000000F901000899400008BF
:1000400077020008770200087702000877020008AC
:10005000770200087702000877020008770200089C
:10006000770200087702000877020008770200088C
:10007000770200087702000877020008770200087C
:10008000750C000877020008770200087702000864
:10009000850B000877020008770200087702000845
:1000A000770200087702000877020008770200084C
:1000B0005141000877020008770200087702000823
:1000C000770200087702000877020008770200082C
:1000D00077020008E1450008F146000877020008B1
:1000E000770200087702000877020008770200080C
:1000F00077020008770200087702000877020008FC
:1001000077020008770200087702000877020008EB
:1001100077020008770200087702000877020008DB
:100120007702000877020008810C000877020008B7
:1001300077020008770200087702000877020008BB
:10014000910B000877020008770200087702000888
:10015000770200087702000877020008770200089B
:10016000770200087702000877020008770200088B
:1001700077020008770200087702000800000000FC
:100180007702000877020008DFF80CD000F0B8FB17
:100190000048004771540008685200202C4B196831
:1001A0000868B0E8F04F80F30988BFF36F8F4FF015
:1001B000000080F3118870470000000008480068C4
:1001C000006880F308884FF0000080F3148862B65E
:1001D00061B6BFF34F8FBFF36F8F00DF00BF00BF6B
:1001E00008ED00E0DFF80C00016841F470010160E7
:1001F000704700BF88ED00E0EFF30980BFF36F8F19
:10020000134B1A681EF0100F08BF20ED108A20E96A
:10021000F04F106009B44FF0500080F31188BFF325
:100220004F8FBFF36F8F05F0C7FD4FF0000080F3D5
:10023000118809BC19680868B0E8F04F1EF0100F6B
:1002400008BFB0EC108A80F30988BFF36F8F704746
:1002500000010020EFF3058070470000064880474A
:1002600006480047FEE7FEE7FEE7FEE7FEE7FEE79B
:10027000FEE7FEE7FEE7FEE73541000889010008DA
:100280002DE9F05F0546002092469B4688460646CB
:10029000814640241BE0284641464746224600F05E
:1002A000EAF953465A46C01A914110D311461846EE
:1002B000224600F0D1F92D1A67EB01084F4622467D
:1002C0000120002100F0C8F917EB00094E41201E63
:1002D000A4F10104DFDC484631462A464346BDE826
:1002E000F09F40EA01039B0703D009E008C9121FF1
:1002F00008C0042AFAD203E011F8013B00F8013BE0
:10030000521EF9D27047D2B201E000F8012B491E0B
:10031000FBD270470022F6E710B513460A460446A2
:100320001946FFF7F0FF204610BD2DE9FE4F80462D
:1003300081EA0300C00F0C46009021F0004123F039
:100340000045B8EB0200A94105D24046214690463F
:100350001C460B46024623F00040104347D0270DB1
:10036000C7F30A00C3F30A510290401A01904028D3
:100370006BDAC3F3130040F4801B0098924620B15F
:100380000023D2EB030A63EB0B0B01985946C0F133
:100390004002504600F060F906460D465046594668
:1003A000019A00F078F910EB08006141002487EA17
:1003B000115284EAE7731A4340D0009A62B3019A5B
:1003C000012A4FEA075215DC001B61EB02014FF0D6
:1003D000004202EA0752CDE90042001C41F58011BB
:1003E00032462B4600F0AFF903B0BDE8F08F40462F
:1003F0002146F9E7001B61EB0201001C41F5801367
:1004000000185B412018A2F5001747EB030140EAF2
:10041000D570B6196D4111E06D084FEA360645EA10
:10042000C0754FEA0752001B61EB0201001C41F549
:10043000801149084FEA30000019514132462B46DD
:1004400003B0BDE8F04F00F06FB900980122400002
:100450000023D0EB020263EBE073009821464FEAE1
:10046000E074B8EB000061EB0401E9E783F00043BE
:100470005BE781F0004158E72DE9FE4F81EA030474
:1004800004F0004421F0004100944FF0000B23F0F1
:10049000004350EA01045ED052EA03045BD0C3F388
:1004A0000A54C1F30A552C44A4F2F3340194A0FB7E
:1004B0000254C1F3130141F48011C3F3130343F455
:1004C000801301FB024400FB034E840A970A44EAAE
:1004D000815447EA8357A4FB076802958D0A05FB00
:1004E00007854FEA932C04FB0C542705029D4FEA25
:1004F000065847EA1637B5EB08056EEB070C870E72
:10050000920E47EA811742EA8312A7FB0201B6EB7B
:100510000B0164EB00042B0D43EA0C335E1844EB33
:100520001C50DA465146E7FB0201C5F313044FEABB
:100530000B3343EA14534FEA0432019C43EA0603A7
:10054000A4F10C040294009CCDE900B400F0FBF887
:1005500003B0BDE8F08F00200146F9E70EB5C10FEA
:1005600080EAE0700844CA07002140F233438DE876
:100570000E000A460B4600F0E6F803B000BD0EB5CB
:1005800040F2334102910021CDE900110A460B46A9
:1005900000F0D9F803B000BD00F0004230F0004098
:1005A0000AD0C10D01F56071C0F3160042EA015195
:1005B000C208400711437047002001467047000001
:1005C00030B5041E71F1000404DB4FF000444042DA
:1005D00064EB0101141E73F1000405DB1C464FF0AF
:1005E0000043524263EB04038B4208BF824230BD9A
:1005F00030B5041E71F1000404DB4FF000444042AA
:1006000064EB0101141E73F1000405DB1C464FF07E
:100610000043524263EB0403994208BF904230BD4D
:1006200001F0004330B421F0004150EA010206D04D
:100630000A0DA2F56072C1F31301002A02DC30BC7E
:1006400000207047440F44EAC104C100E01830BCE8
:1006500000EBC25000F031B8202A04DB203A00FA47
:1006600002F1002070479140C2F1200320FA03F309
:10067000194390407047202A04DB203A21FA02F007
:100680000021704721FA02F3D040C2F120029140CC
:10069000084319467047202A06DBCB17203A41FA57
:1006A00002F043EAE07306E041FA02F3D040C2F1FF
:1006B000200291400843194670470029A8BF70479F
:1006C000401C490008BF20F00100704710B4B0FA88
:1006D00080FC00FA0CF050EA010404BF10BC704723
:1006E00049B1CCF1200421FA04F411FA0CF118BF3D
:1006F000012121430843A3EB0C01CB1D4FEA00610C
:100700004FEA102042BF002010BC704700EBC350DE
:1007100010440029A4BF10BC7047401C490008BF0A
:1007200020F0010010BC704710B5141E73F10004D6
:1007300008DA401C41F1000192185B411A4301D1D3
:1007400020F0010010BD2DE9F04D92469B4611B1FD
:10075000B1FA81F202E0B0FA80F220329046FFF75F
:100760007BFF04460F4640EA0A0041EA0B0153466C
:100770005A46084313D0114653EA010019D0C8F174
:1007800040025046FFF777FF05460E465046594651
:100790004246FFF761FF084305D0012004E02046F0
:1007A0003946BDE8F08D0020054346EAE0762C434B
:1007B00037430A986305E40AA0EB08000022FD0A0B
:1007C00044EA47540A3002D500200146E9E7010512
:1007D00010196941DDE9084500196941BDE8F04D8E
:1007E000A2E72DE9F04D81EA030404F0004B21F06B
:1007F000004514464FF0000A23F0004150EA05027C
:1008000020D054EA01021DD0C5F30A570246C5F3B1
:100810001303C1F31300C1F30A5640F4801543F4E7
:100820008013A7EB0608101BD64608F2FD3873EBC1
:10083000050002D308F1010801E092185B41B8F10C
:10084000000F03DA00200146BDE8F08D00204FF4D0
:100850008011064684460EE0171B73EB050705D38F
:10086000121B63EB050306434CEA010C49084FEAEF
:10087000300092185B4150EA0107EDD152EA0300C3
:1008800012D082EA040083EA0501084305D0101B58
:10089000AB4106D20122002306E000224FF00043C4
:1008A00002E06FF0010253101AEB06004CEB085106
:1008B00010EB0A0041EB0B01BDE8F04DFFF734BF30
:1008C00070B5C1F30A5201F000450024C1F31301D1
:1008D00040F2FF3341F480119A4201DA002070BDEA
:1008E00040F233439A42A2F2334203DC5242FFF712
:1008F000C2FE00E090402C43F1D0404270BD0000A9
:10090000064C074D06E0E06840F0010394E807005C
:1009100098471034AC42F6D3FFF73AFC70630008F6
:100920009063000870B58C1810F8015B15F0070390
:1009300001D110F8013B2A1106D110F8012B03E078
:1009400010F8016B01F8016B5B1EF9D12B0705D480
:100950000023521E0DD401F8013BFAE710F8013BC9
:10096000CB1A921C03E013F8015B01F8015B521EE5
:10097000F9D5A142D8D3002070BD000030B58BB0AE
:1009800002F0DAFD00200121009001900290039016
:10099000CDE9051004900E20089107910990694651
:1009A0000C4800F0C3FD044602F0E8FD0F2005905E
:1009B0006946094800F0BAFD40EA040502210548ED
:1009C00000F03EFD0221044800F03AFD0BB028463D
:1009D00030BD000094060020BC06002010B502F0D7
:1009E0008DFE044801F094FFBDE810400C21014841
:1009F00002F080B9380F002010B502F0E3FEBDE828
:100A00001040014801F096BF780F00202DE9F04119
:100A10005648574C2DED068B817CA2788A1A012A04
:100A200002D1A288521CA280A170C37A01219FED3D
:100A300051AB524D4E480026D5ED010A90ED040A07
:100A40004FF07F52022B30EEC00AD5ED020AB0EE15
:100A5000C08A90ED050A008930EEC00AB0EEC00AE7
:100A600009D018EE103A934203DC10EE103A93428C
:100A700057DDB8B355E0A389D5ED030A01EE103A6E
:100A80004FF07E57B8EE411A30EEC11A11EE103A0F
:100A9000BB4203D12181642060815AE010EE903A7C
:100AA000BB4222D118EE103A934203DC10EE103A0A
:100AB000934236DD90BB218110EE100AFFF76CFDEA
:100AC00041EC190B18EE100AFFF766FD53EC192BD9
:100AD000FFF72BFC53EC1A2BFFF78AFD03D24FF4E0
:100AE000A0701DE003E0DC201AE026811CE02181DB
:100AF00010EE100AFFF750FD41EC190B18EE100A2A
:100B0000FFF74AFD53EC192BFFF70FFC53EC1A2BA0
:100B1000FFF76EFD03D24FF4967001E001E0C820AC
:100B200060812089012814D02681E68095ED010A94
:100B300084ED040A95ED020A84ED050A95ED030A99
:100B4000BCEEC00A10EE100AA081BDEC068BBDE819
:100B5000F081E088401C80B2E08061898842E5D164
:100B60002681E680A088401CA080DFE76801002085
:100B70001000002000000000000024404C02002073
:100B8000FEE70000014800F0CCBD00009406002004
:100B9000014800F0C6BD0000BC0600201CB505F0F1
:100BA00067FA0E4C00250190A07A01280FD0032887
:100BB00010D00095B4F90210B4F90000002302220D
:100BC00004F0C6F9022101A805F072F8ECE704F080
:100BD000C7FBF7E704F0E6FEF4E700006801002039
:100BE0002DE9F047154C0F46824620684006FCD59B
:100BF000124D4FF003092D1DC5F8009020684006E6
:100C0000FCD54FF0FC08C5F80080002607E000BFC7
:100C10000AEB8600042103F00BFC761CF6B2BE4200
:100C2000F6D320684006FCD5C5F800802068400651
:100C3000FCD5C5F80090BDE8F0870000004C0040EE
:100C400010B502F0F1FDBDE81040014801F072BEA0
:100C5000B80F0020064900220B685A62C0EBC000A2
:100C6000096800EB40004A6AB2EB800FFBD3704783
:100C7000B80F0020014800F0F9BF00001811002053
:100C8000014800F0F3BF0000B810002001681823ED
:100C9000CAB2103AB2FBF3F2054B6FF30901032A13
:100CA0009B5CC36500D9091D81650846704700003B
:100CB000B062000810B5014600208B698A6A4FF0C7
:100CC000C07453B1B3F5005F15D072B1012A0CD0D6
:100CD000022A0AD0032A09D104E01AB1012A06D057
:100CE000022A03D1C96AC90100D5012010BDC96A11
:100CF000A142FAD010BD002AF7D0012AF2D0022A70
:100D0000F3D0032AF3D010BD7047704730B53B498C
:100D100000208A8A3A4900BF22FA00F303F0010357
:100D20000B54401CC0B21028F6D335480B78012272
:100D30000C3803B102704C784FF0FF3304B10370EC
:100D40008C7804B14370CC7804B142708C7904B1D2
:100D50008370CB7903B182700C7904B182714C7BC2
:100D6000284A4CB95578012D06D14579012D01D07D
:100D7000012500E0002545715470CC7B012C08D181
:100D8000157835B9C578012D01D0012500E0002581
:100D9000C57014704C7A4CB99578012D06D1457AFE
:100DA000012D01D0012500E00025457294700C7AD8
:100DB0004CB9D578012D06D1057A012D01D0012538
:100DC00000E000250572D470097B49B91479012C23
:100DD00006D1847A012C01D0012400E00024847221
:100DE00011714BB95179012906D1C17A012901D07C
:100DF000012100E00021C172537130BD6801002063
:100E0000E40100200200002010B52C4C2C482DEDF0
:100E1000028BB0EE608AF0EE400A94ED090A02F00F
:100E20007DFD274894ED020AD0ED090AB1EE400A93
:100E30004C3802F073FD18EE100A224A2249904203
:100E400004DB18EE100A884202DD04E09FED1F8AE1
:100E5000F0EE480A01E0DFED1E0A1E489FED1E1A63
:100E6000008900EE100A1648B8EE400A983020EECD
:100E7000010A02F053FD124894ED000A9830D0EDBB
:100E8000090AB1EE400A4C3802F048FD0C484C38D3
:100E900090ED090ABDEEC00A10EE100A01B2084832
:100EA0004C3090ED090ABDEC028BBDEEC00ABDE8E6
:100EB000104010EE100A00B204F078B824020020AE
:100EC000B00500200000724300009643000072430A
:100ED00000009643A4030020FDFF333D10B51E48DB
:100EE0001E4A204903681E48DFED1F0A92ED090AD9
:100EF00009891E4C012B03D02278012A0FD022E051
:100F000080ED020A00EE101AB8EE400A20EE200A28
:100F100080ED030A04F0F2F80120207010BD80ED8E
:100F2000000A00EE101AB8EE400A20EE200A80ED0A
:100F3000010A9FED0F0A80ED030A80ED020A0020EE
:100F4000207003F0D9FFD4ED020A94ED010ABDE848
:100F5000104000F0E1B800004C0200202402002004
:100F60008C020020A4030020FDFF333D6800002018
:100F7000000000002A4910B5B1F90C009FED291AB4
:100F800000EE100AF6EE000A2748B8EEC00A20EE7E
:100F9000010A20EE200A80ED010AB1F90E2052422A
:100FA00001EE902AF8EEE11A61EE811A61EEA00AD4
:100FB000F7EE001AC0ED020ACA7A012A07D1C97CED
:100FC000012904D0C168B1F17E5F05D018E0C0ED01
:100FD000031AFFF783FF15E0DFED141A1649C0ED81
:100FE000031A1348D0ED091A1248C0ED001A0989F6
:100FF00001EE901AF8EE611A21EE811A80ED011AC5
:1010000000F08AF80D48C1780D48012904D04FF44A
:10101000FA710068016410BD4FF4FA61F9E700004D
:1010200068010020FDFF333D680000200000000043
:10103000240200208C020020A4030020D8010020FC
:10104000380F002000B587B002AA01A9684602F057
:101050003BF928B905AA04A903A802F0F7F810B1D2
:10106000012007B000BD9DED000ADFED240A2448F1
:101070009FED241A70EEC00ADFED231AC0ED000ABE
:101080009DED010A31EE401A80ED011A9DED020A34
:1010900031EEC00AF0EEE01A11EE901ADFED1B1AE5
:1010A00080ED020AB1F17C5F01DAF0EE610AC0ED79
:1010B000000AF0EEC10A10EE901A154A914201DAC8
:1010C000B0EE611AF0EEC00A10EE901A114A80EDEF
:1010D000011A914201DAB0EE610A80ED020A9DED3B
:1010E000030A80ED060A9DED040A80ED070A9DEDD6
:1010F000050A80ED080A0020B3E70000AF94EDBFB9
:1011000024020020F489D43FD044A8BF000000008E
:101110009A99993ECDCCCC3E70B500F067F92B4C36
:101120002B4D2C48D4ED000A95ED090A02F0F6FB90
:10113000284895ED020AD0ED090AB1EE400A4C3874
:1011400002F0ECFBD4ED010A234910EE900A88422C
:1011500001DADFED220A224910EE900AC4ED010AFD
:10116000884201DDDFED1F0A1F48C4ED010A9FED33
:101170001F1A008900EE100A1648B8EE400A98308F
:1011800020EE010A02F0CAFB124895ED000A9830E1
:10119000D0ED090AB1EE400A4C3802F0BFFB0D4811
:1011A0004C3890ED090ABDEEC00A10EE100A01B2EB
:1011B00008484C3090ED090ABDE87040BDEEC00A09
:1011C00010EE100A00B203F0F1BE00008C02002005
:1011D00024020020B005002000007243000072438A
:1011E0000000964300009643A4030020FDFF333D1A
:1011F00070B5254C9FED251A264DB4F904004FF427
:10120000FA7600EE100A2248F8EEC00A80EE810A53
:1012100080ED010AB4F9061000EE901AF8EEE01A1B
:10122000C1EE810AC0ED020AE17A01290CD0B7EEC5
:10123000000A80ED030AFFF751FEE07A03281FD071
:101240002968B000086470BDC168B1F17E5F15D136
:1012500014499FED111ADFED141A80ED031A0F489F
:1012600090ED091A0E4880ED001A098901EE101A56
:10127000B8EE411A21EE211A80ED011AFFF74CFF5A
:101280002868066470BD0000680100200000DC438F
:1012900068000020380F0020000000002402002019
:1012A0008C020020A4030020FDFF333D2DED048BB4
:1012B00082B03E493E4802F095FB3C493C4814311F
:1012C0004C3802F08FFB394939482831983002F008
:1012D00089FB364936483C314C3002F083FB142000
:1012E00004F0C0FC334C02E033A003F093FA207BFF
:1012F0000028F9D0DFF8D08094ED090ADFF8CC900F
:1013000088ED000A9FED328AB9F8081000EE101A35
:10131000B8EE400A20EE080A88ED010A04F0A8FEA3
:10132000224D2C4F1C3D9FED2C9B2D4ECDF80000E7
:1013300004F09EFE28613968401AFFF720F941EC5D
:10134000100B03F0EDFC53EC192B51EC100BFFF7D5
:101350004FF902D2234900200860B07A01281DD03D
:10136000032820D020494FF4FA7009680864B9F8BE
:101370000800002100EE100A0846B8EE400A20EEF0
:10138000080A88ED010A94ED090A88ED000A03F0C5
:101390000DFE0521684604F08BFCC9E7FFF7B6FC9B
:1013A000FFF7E8FDF5E7FFF723FFF2E784000020F1
:1013B000B00500202402002047696D62616C206541
:1013C00072720D0A000000008C020020A4030020AD
:1013D000FDFF333D0C000020000000000000344001
:1013E000680100204C020020380F00200F48104AEE
:1013F00090ED001A31EE400A80ED000A90ED010AEE
:1014000030EE200A10EE101A80ED010A914201DA46
:101410009FED080A084A10EE101A80ED010A914269
:1014200001DD9FED060A80ED010A70478C02002065
:101430000000724300007243000096430000964390
:1014400090F82020012A07D0022A05D0416A41F4F1
:101450008021416201207047006842690A4342616D
:1014600000207047F0B590F820500468A468012D62
:1014700005D0022D03D0416A41F4802153E014F0DD
:10148000406F01D1E5004BD5C4F30164022C03D9B0
:10149000416A41F4000146E00125A5401D608D68C8
:1014A0004FF4C0739DB1CE6835434E6845EAC6051A
:1014B000066803EB0417F5514FF4C275076805EB96
:1014C00004150E697E51097D012905D009E00E88B9
:1014D000CD6845EA4655EBE701684E5946F48076FB
:1014E0004E511179D2F805504FF4C67641EA0525E0
:1014F000016806EB04168D511178D2F801204FF4E3
:10150000C47541EA0221026805EB041551510068D7
:1015100003EB0411425842F0010242500020F0BD9A
:10152000416A41F4001141620120F0BD10B590F80C
:101530002020012A07D0022A05D0416A41F48021E7
:101540004162012010BD3B48D0F8002242F0010268
:10155000C0F80022D0F8002222F47C52C0F8002209
:10156000D0F800224B6A42EA0322C0F800220A7D2A
:1015700002F01F0301229A40D0F81C329343C0F8B6
:101580001C32CB69B3B9D0F80C329343C0F80C329B
:101590008C894B6864F31F434C6900EBC404C4F8A6
:1015A00040320C890B6864F31F434C6900EBC404A0
:1015B000C4F84432CB69012B16D1D0F80C32134356
:1015C000C0F80C320C884B6864F31F434C6900EB85
:1015D000C404C4F840320C89CB6864F31F434C69DF
:1015E00000EBC404C4F844328B69002BD0F80432F9
:1015F0000ED01343C0F804320B69002BD0F814321C
:1016000008D01343C0F81432096A012904D008E055
:101610009343EFE79343F5E7D0F81C121143C0F86A
:101620001C12D0F8001221F00101C0F800120020B5
:1016300010BD000000640040704730B590F82040B5
:10164000012C05D0022C03D0416A41F480215DE0D9
:101650000468002955D02469A40754D04FF4D874E5
:10166000056804EB01142D5915F004059560056813
:101670002D594ED0ED08556005682C5904F0020430
:10168000D4604FF4DA74056804EB01142D5905F0A9
:101690000F05156105682D59C5F307259561056886
:1016A0002C59240C54614FF4DC72046802EB0112D3
:1016B000A4581C700468A458240A5C700468A458D8
:1016C000240C9C700468A258120EDA704FF4DE727B
:1016D000046802EB0112A4581C710468A458240A7F
:1016E0005C710468A458240C9C710468A258120E02
:1016F000DA71006881B1016941F0200101610020C7
:1017000030BDE468A8E7416A41F40011416201205C
:1017100030BD6D0D1560AFE7C16841F02001C160BB
:10172000EDE72DE9F05F0546006800244669D0F832
:1017300004908768D0F80CB0D0F810A0D0F81880CA
:10174000F10748D0F90714D001218160B80703D50B
:10175000284600F085FA0CE0780702D54FF40064C3
:1017600007E0380702D54FF4805402E0284600F025
:1017700076FAF80516D529684FF480708860B805A8
:1017800003D5284600F06EFA0CE0780502D544F443
:10179000005407E0380502D544F4804402E02846AE
:1017A00000F05FFAF80316D529684FF4803088609E
:1017B000B80303D5284600F057FA0CE0780302D5A9
:1017C00044F4004407E0380302D544F4803402E0D6
:1017D000284600F048FA300707D55FEACB6004D509
:1017E0002968102044F40074C86070074FF008079F
:1017F00007D55FEA0B7004D52868C760284600F05B
:101800009BF9B00706D52868C068800702D0284633
:1018100000F094F9700607D55FEACA6004D529681C
:10182000102044F480640861B00607D55FEA0A70AE
:1018300004D528680761284600F00EFAF00606D5A0
:1018400028680069800702D0284600F006FAB00335
:1018500008D55FEAC96005D5296810204860284688
:1018600000F0FCF9F00307D55FEA097004D5286899
:101870004760284600F0F9F9300446D55FEA497020
:1018800040D5F00504D55FEAC87001D044F00104EA
:10189000B00504D55FEA887001D544F002047005F4
:1018A00004D55FEA487001D544F00404300529D519
:1018B00018F0700F26D008F07000402815D006DC14
:1018C000102809D020280AD0302816D10AE0502844
:1018D0000ED0602811D10EE044F008040DE044F071
:1018E00010040AE044F0200407E044F0400404E05F
:1018F00044F0800401E044F480742868816921F098
:1019000070018161296804204860002C05D0686A54
:10191000204368622846FFF78FFEBDE8F09F70B550
:10192000040003D094F8200010B104E0012070BD41
:10193000204600F081F82068016821F00201016072
:1019400000F0CEFB0546052604E000F0C9FB401B75
:101950000A2811D8206840688007F6D420680168FA
:1019600041F00101016000F0BBFB05460BE000F017
:10197000B7FB401B0A2806D9606A40F40030606259
:1019800084F82060D2E720684068C007EFD0207E4E
:101990000128206801683DD021F080010160607E4F
:1019A00001282068016838D021F040010160A07E44
:1019B00001282068016833D021F020010160E07E19
:1019C0000128206801682ED041F010010160207FBD
:1019D00001282068016829D021F008010160607F9A
:1019E00001282068016824D021F004010160D4E9B5
:1019F00002010843D4E90412114308436168491EF7
:101A000008432168C86100206062012084F820003A
:101A1000002070BD41F08001C0E741F04001C5E702
:101A200041F02001CAE721F01001CFE741F00801A1
:101A3000D4E741F00401D9E7F0B587B0044614219A
:101A40006846FEF767FC374B3748DFF8D4E0196883
:101A5000D4F800C0344A0225032609271030002498
:101A6000491CF44524D11960012907D1016841F0CE
:101A700000710160006800F000700590106840F08F
:101A800001001060106802AB00F0010005904FF4F7
:101A9000C050CDE9000583E8D0006946234800F036
:101AA00031FA00220521142000F08CFB142033E0D1
:101AB000DFF87CE0F44531D1D0F800C04CF0806C08
:101AC000C0F800C0D0F800C001290CF0806CCDF83F
:101AD00014C0196007D1016841F00071016000680D
:101AE00000F000700590106840F00200106010686F
:101AF00002AB00F0020005904FF44050CDE9000524
:101B000083E8D00069460B4800F0FCF9002205216B
:101B1000402000F057FB402000F046FB07B0F0BD2E
:101B200000640040D4000020303802400000024031
:101B300000680040000402407047000030B58BB0E0
:101B4000002100910191404D3E496C4288423BD1B9
:101B50003E49322003F03AFC6B4602AA0021394884
:101B6000FFF76BFD0298062814D0A0F50070073827
:101B700006D001280CD1BDF8000041BA34483FE03E
:101B80003348203844E0491CC161A2424FDCC161A6
:101B90000BB030BD2E489DF8001080300170BDF8AC
:101BA000011049BA4180BDF8031049BA8180BDF8DF
:101BB000051049BA00EE101AB8EE400A80ED020A8C
:101BC0009DF807100173E3E722498842E0D11F49DD
:101BD00032200C3103F0FAFB6B4602AA00211D48AB
:101BE000FFF72BFD0299A1F5007101390ED01848BD
:101BF000403001291DD00329CAD1BDF8001049BACF
:101C00000181BDF8021049BA0182C1E710482030B5
:101C100002890280BDF8001049BA0181BDF8023086
:101C20008A1A5BBA0382C169AA42ACDBACE7491EDF
:101C3000ADE7BDF8001049BA0185BDF8021049BAF8
:101C40000186A5E79406002000F0FFFF0C020020AB
:101C5000A4030020BC0600207047704770477047FF
:101C60007047704770477047704770472DE9F843D9
:101C700004464FF00009CDF8009063484FF4165128
:101C8000A56D0068B0FBF1F72E6894F85C10082091
:101C900000FA01F131420FD021680A6852070BD5D2
:101CA0000A6822F004020A6094F85C108840A86078
:101CB000606D40F00100606594F85C104FF0010821
:101CC00008FA01F0304208D021684969090604D5B4
:101CD000A860606D40F00200606594F85C1004201C
:101CE0008840304208D021680968890704D5A86077
:101CF000606D40F00400606594F85C10102088402E
:101D0000304218D021680968090714D5A8602068F6
:101D10000168490304D50068000308D5A16C07E0F9
:101D20000168C90503D4016821F008010160216C34
:101D300009B12046884794F85C1020208840304242
:101D400031D021680968C9062DD5A86094F83500FE
:101D500005282068016806D0490347D500680003BC
:101D60001DD4616C1CE021F01601016020684169FE
:101D700021F080014161206C08B9A06C20B120687D
:101D8000016821F00801016094F85C103F20884050
:101D9000A86084F8349084F83580216D1FE0E16BF1
:101DA00009B120468847606D00282BD0606DC007C0
:101DB00014D0052084F835002068016821F0010165
:101DC00001600098401C0090B84203D82068006869
:101DD000C007F6D184F8349084F83580E16C00298E
:101DE00010D001B02046BDE8F04308470168C9059E
:101DF000D5D4016821F01001016084F8349084F892
:101E00003580CCE7BDE8F883FC0000202DE9F041E7
:101E1000044600F065F906465CB1002584F83450AC
:101E2000022084F835002068016821F0010101607A
:101E30000DE00120BDE8F08100F052F9801B05287B
:101E400005D920206065032084F83500F2E720687A
:101E50000068C007F0D12268116820480140D4E929
:101E600001031843D4E90336334318436369184325
:101E7000A3691843E3691843236A18430843616A56
:101E8000042903D1D4E90B131943084310602068D7
:101E90004069666A20F0070130460E430127042896
:101EA0000CD1A06A0643E06A40B12046FEF702FF6B
:101EB00020B14020606584F83570BAE7206846613B
:101EC0002046FEF7E3FE94F85C203F2191408160BC
:101ED000656584F835700020ACE700003F8010F0A5
:101EE00070B5044600F0FCF80546601C02D00448BA
:101EF0000078044400F0F4F8401BA042FAD370BD0F
:101F0000F00000202DE9F84F00224FF001080325D2
:101F10004FF00F0E0B6808FA02F42340A3426ED173
:101F20004E68012E05D0022E03D0112E01D0122EA4
:101F300012D186684FEA420C05FA0CF7BE43CF680F
:101F400007FA0CF7374387604668A6430C79C4F359
:101F50000014944034434460C668570005FA07FCF7
:101F60008C6826EA0C06BC403443C4604C68022CE2
:101F700001D0122C13D1D40800EB8404A346D4F86A
:101F8000209054074FEAD46A0EFA0AF629EA0609A5
:101F90000E6906FA0AF646EA0906CBF820600668DA
:101FA0000C7926EA0C0604F00304BC4034430460B8
:101FB0004C68E40065D5364C266846F480462660B9
:101FC000246822F0030604F480440094314C344425
:101FD000A446D4F808489607370F0EFA07F6B4431C
:101FE0002D4EB04201D1002624E02C4EB04201D14A
:101FF00001261FE02A4EB04202D102261AE040E03C
:10200000284EB04201D1032614E0274EB04201D140
:1020100004260FE0254EB04201D105260AE0244EE9
:10202000B04201D1062605E0224EB04201D107267A
:1020300000E00826BE402643CCF808681E4E3468EF
:102040004F689C43FF0300D51C4334601A4C241D89
:1020500026684F689E43BF0300D51E432660164E78
:10206000083634684F689C43FF0200D51C43346037
:10207000114E0C3634684F689C43BF0200D51C4398
:102080003460521C102AFFF445AFBDE8F88F000001
:102090004438024000300140000002400004024089
:1020A00000080240000C02400010024000140240F0
:1020B00000180240001C0240003C0140006908403A
:1020C00000D001207047426931EA020200D10904C0
:1020D000816170470AB1816170470904FBE7000024
:1020E0000148806870470000F000002002488168C5
:1020F0000278114481607047F00000200B4810B551
:10210000016841F400710160016841F4806101607F
:10211000016841F480710160032000F073F80F2022
:1021200000F006F800F024F8002010BD003C02404A
:1021300070B50D4D04464FF47A712878B1FBF0F07C
:102140000A490968B1FBF0F000F006FB48B9102C11
:1021500007D200222146501E00F034F800206C60A7
:1021600070BD012070BD0000F0000020FC000020C8
:102170000C4882B0016841F480410160006800F4BD
:10218000804000900748001F016841F080510160C5
:102190000068002200F0805000900F21901E02B0D5
:1021A00000F010B844380240002809DB00F01F029C
:1021B000012191404009800000F1E020C0F80011A9
:1021C00070470000F0B40E4B1B680C46C3F30223AB
:1021D000C3F10705042D00D90425191D072901D2D3
:1021E000002300E0DB1E012606FA05F1491E21400E
:1021F00099409E40761E16403143F0BC02F03DBB34
:102200000CED00E0064900F0070208684FF6FF03F6
:10221000184040EA0220034A10430860704700005B
:102220000CED00E00000FA052DE9F0470E46050030
:1022300065D0DFF81481D8F80000F7B200F00F0085
:10224000B04207D288F80070D8F8000000F00F0004
:10225000B04254D128683D4C810712D5400703D5C0
:10226000206840F4E05020602878000703D52068FB
:1022700040F4604020602068A96820F0F000084326
:1022800020602878C0072DD03049686808390128B7
:1022900012D0022813D0032811D009688907002919
:1022A0002DDA216821F0030101432160FFF718FFB7
:1022B000814641F2883A0EE009688903EFE7096830
:1022C0008901ECE7FFF70CFFA0EB0901514502D9AA
:1022D0000320BDE8F0872068696800F00C00B0EBCF
:1022E000810FEFD1D8F80010404601F00F01B14244
:1022F00007D90770006800F00F00B04201D001203C
:10230000E7E72878400705D52068E96820F4E05021
:10231000084320602878000706D52068296920F442
:10232000604040EAC100206000F038F82168084AA7
:10233000C1F30311515CC8400649086006480068B3
:10234000FFF7F6FE0020C4E7003C024008380240D8
:10235000B8620008FC000020F40000200448054991
:1023600000680968044AC1F38221515CC840704783
:10237000FC00002008380240C862000804480549F3
:1023800000680968044AC1F34231515CC840704793
:10239000FC00002008380240C8620008154810B54B
:1023A000006810F00C02144813D04110042A0FD01A
:1023B000082A0ED10F4C241F2268236802F03F0226
:1023C0005B0207D52068C0F38810A0FB010106E07E
:1023D000084610BD2168C1F38811A1FB000100234C
:1023E000FDF74EFF2168C1F30141491C4900B0FBD4
:1023F000F1F010BD083802400024F4002DE9F84F38
:10240000040076D02078DFF838A3CE4DC00749D03D
:10241000DAF800105046C1F38101012908D00068A4
:10242000C0F3810002280AD1281D0068400206D5A9
:102430002868800336D560680028E2D032E0606802
:10244000B0F5803F10D0B0F5A02F286810D020F450
:1024500080302860286820F4802028606068A0B15F
:10246000FFF73EFE06460CE0286840F48030F4E7B3
:1024700040F480202860F7E7FFF732FE801B6428D5
:1024800073D828688003F7D50CE0FFF729FE0646CD
:1024900005E000BFFFF724FE801B6428F0D8286801
:1024A0008003F7D42078DFF8A08280074FF000097E
:1024B0003ED5DAF80010504611F00C0F09D0006834
:1024C000C0F3810002280BD19D48001F0068400224
:1024D00006D42868800715D5E068012809D111E0E5
:1024E000E068B8B10120C8F80000FFF7F9FD064622
:1024F00005E020E1FFF7F4FD801B0228C0D8286822
:102500008007F7D52868216920F0F80040EAC1006B
:1025100028600DE0C8F80090FFF7E2FD064604E0F1
:10252000FFF7DEFD801B02281FD828688007F7D43C
:102530002078000722D5824E844861696C3671B1DB
:1025400001210160FFF7CCFD074604E0FFF7C8FD5D
:10255000C01B022809D830688007F7D50EE0C0F804
:102560000090FFF7BDFD074605E082E0FFF7B8FDEC
:10257000C01B02287DD830688007F7D42078400738
:1025800068D5DFF8BCB100270BF1380BDBF8000091
:10259000C0000BD4DBF8001041F08051CBF80010E4
:1025A000DBF80000012700F080500090684E306892
:1025B000C00510D4306840F480703060FFF790FDA3
:1025C000009005E0FFF78CFD0099401A022850D8D2
:1025D0003068C005F6D55A4EA068683601280FD07D
:1025E0000528306810D020F001003060306820F0FD
:1025F00004003060A068B8B1FFF772FD00900FE0F2
:10260000306840F00100F4E740F004003060F7E784
:10261000FFF766FD0099411A41F28830814266D881
:1026200030688007F4D50EE0FFF75AFD009007E010
:10263000FFF756FD0099411A41F28830814256D881
:1026400030688007F4D42FB1DBF8001021F08051FE
:10265000CBF80010A069D0B3DAF800205146C2F3DD
:102660008102022A4AD00228484607D0C8F86000F2
:1026700000E03CE0FFF734FD04463BE04746C8F885
:102680006000FFF72DFD064605E000BFFFF728FDBF
:10269000801B02282BD828688001F7D4D4E90701D1
:1026A0000843A16A2B4A490802EB0141626A41EAE8
:1026B0008211084394F82C1040EA01612048001F61
:1026C000016001203866FFF70BFD044605E034E0A9
:1026D000FFF706FD001B022809D828688001F7D5FE
:1026E0002BE000BFFFF7FCFC001B022802D90320EF
:1026F000BDE8F88F28688001F4D41EE00128F7D0E7
:102700000868E26900F48001914214D1226A00F065
:102710003F0191420FD147F6C071626A0140914278
:1027200009D1A26A00F44031914204D1E16A00F07B
:102730007060884201D00120DAE70020D8E700006D
:10274000083802400038024000004742800E4742ED
:10275000007000400000FFFF10B5401EB0F1807F08
:1027600001D3012010BD4FF0E02460610F216017FC
:1027700002F083F80020A06107202061002010BD36
:102780007047704710B590F83C20012A22D00122F2
:1027900080F83C20CA688C6822F4407222434C685E
:1027A00022F4806222430C6822F4006222430C6906
:1027B00022F4805222434C6922F400522243C96918
:1027C000002322F480420A4301684A6480F83C30C6
:1027D000002010BD022010BD70B590F83C20012AE9
:1027E00032D0012480F83C40022280F83D2003686A
:1027F0005A689D6822F070060A6832435A60134B8B
:1028000002689A4214D0B2F1804F11D0104B9A4214
:102810000ED0104B9A420BD00F4B9A4208D00F4B60
:102820009A4205D00E4B9A4202D00E4B9A4204D1E6
:10283000496825F080031943916080F83D400021EC
:1028400080F83C10084670BD022070BD00000140B9
:102850000004004000080040000C0040000401405B
:10286000004001400018004010B5040003D094F867
:102870003D0010B107E0012010BD002084F83C00AD
:10288000204600F00DF8022084F83D00211D20684C
:1028900001F064FC012084F83D00002010BD000020
:1028A00008B501681748814208D11748016841F00E
:1028B00001010160006800F001000EE01248001FF5
:1028C000B1F1804F0BD0114A914207D1016841F01C
:1028D00010010160006800F01000009008BD016860
:1028E00041F0010101600068002200F00100009049
:1028F00002211C20FFF766FCBDE808401C20FFF702
:1029000053BC000000000140443802400010004069
:10291000022180F83D1001688A6802F00702062A49
:1029200003D00A6842F001020A60012180F83D10DC
:10293000002070470168CA6842F00102CA6000685E
:10294000816801F00701062903D0016841F0010107
:1029500001600020704770B5044690F83C000128E3
:1029600017D0012584F83C50022084F83D002068EF
:10297000826822F0770222F47F4282600868502841
:1029800030D00DDC20284DD005DC98B310283BD189
:1029900048E0022070BD302844D0402834D139E0CE
:1029A000602828D0702806D0B0F5805F2CD0B0F514
:1029B000005F29D10AE0CB68D1E90121206801F04C
:1029C0003EFC2068816841F0770109E0CB68D1E9DD
:1029D0000121206801F033FC2068816841F48041C6
:1029E000816011E0CA684968206801F0FDFC50214F
:1029F000206807E016E0CA684968206801F005FD14
:102A00006021206801F025FC84F83D50002084F806
:102A10003C0070BDCA684968206801F0E5FC4021AF
:102A20002068EFE7226801461046EBE7704770B573
:102A30000446006801694FF00005C943890715D4B1
:102A4000C168C943890711D4E91E016101202077BB
:102A5000206880698007204602D0FFF7E7FF04E086
:102A600000F0C2F8204600F044F92577206801699B
:102A7000C943490717D4C168C943490713D46FF044
:102A800004010161022020772068806910F4407FF2
:102A9000204602D0FFF7CAFF04E000F0A5F8204668
:102AA00000F027F9257720680169C943090716D482
:102AB000C168C943090712D46FF0080101610420FD
:102AC00020772068C0698007204602D0FFF7AEFF5C
:102AD00004E000F089F8204600F00BF92577206823
:102AE0000169C943C90617D4C168C943C90613D4CB
:102AF0006FF010010161082020772068C06910F490
:102B0000407F204602D0FFF791FF04E000F06CF810
:102B1000204600F0EEF8257720680169C943C9070F
:102B200008D1C168C943C90704D1891E0161204683
:102B300000F002F920680169C943090609D4C16897
:102B4000C943090605D46FF0800101612046FFF7F3
:102B500017FE20680169C943490609D4C168C94301
:102B6000490605D46FF040010161204600F004F9E8
:102B700020680169C94389060BD4C168C943890625
:102B800007D46FF0200101612046BDE87040FFF7D7
:102B9000F8BD70BD10B586B0044614216846FDF737
:102BA000B9FB0E492068884216D10D480021026801
:102BB00042F010020260006800F0100005904FF42F
:102BC000804000900220CDE901010120CDE90310F1
:102BD00069460448FFF796F906B010BD00000140B1
:102BE0003038024000100240704770B5044690F83B
:102BF0003C000D4601280DD0012684F83C600220DF
:102C000084F83D0042B1042A18D0082A2AD00C2AA0
:102C10004DD139E0022070BD206801F023FB20680F
:102C2000816941F0080181612068816921F0040116
:102C30008161206881692A69114311E0206801F0EF
:102C400041FB2068816941F40061816120688169EC
:102C500021F480618161206881692A6941EA022149
:102C6000816124E0206801F063FB2068C16941F0C4
:102C70000801C1612068C16921F00401C1612068B7
:102C8000C1692A69114311E0206801F085FB2068C1
:102C9000C16941F40061C1612068C16921F48061AA
:102CA000C1612068C1692A6941EA0221C16184F8D1
:102CB0003D60002084F83C0070BD10B5040003D0D6
:102CC00094F83D0010B107E0012010BD002084F809
:102CD0003C00204600F00CF8022084F83D00211D45
:102CE000206801F03BFA012084F83D00002010BD6F
:102CF0007047704710B504460068012201F092FA4F
:102D00000B492068884202D00A49884203D1416CAD
:102D100041F4004141642068816801F007010629FF
:102D200003D0016841F001010160002010BD0000E6
:102D300000000140000401400B4910B5884212D147
:102D40000A49322002F042FBFEF77CF908489FED69
:102D5000091A012190ED090AD0ED020A00EEC10A1C
:102D600080ED090A017310BD780F002000020020D9
:102D7000240200206F12033B704770B5040004D09A
:102D800094F83900002510B106E0012070BD84F8E8
:102D90003850204600F022F8242084F839002068BA
:102DA000C16821F40051C160204601F053FB206846
:102DB000016921F4904101612068416921F02A01F3
:102DC00041612068C16841F40051C160E563202081
:102DD00084F8390084F83A00002070BD2DE9F047EE
:102DE00086B0064614216846FDF794FA5548544FBC
:102DF000356800245349103803220223DFF848A124
:102E0000BD421DD10C6844F400240C60096801F433
:102E100000210591016841F00101016000686946E7
:102E200000F0010005900120CDE902020820049085
:102E3000CDE900235046FFF765F806B0BDE8F087FE
:102E4000DFF808814FF0070C4FF000674FF48069FE
:102E5000454538D13B49091D0D6845F010050D6009
:102E6000096801F010010591016841F0010101605C
:102E70000068694600F0010005904FF4C0608DE8DD
:102E80001900CDE9032C5046FFF73CF8314D30488E
:102E90002860C5E90174C5E9034980156C61C5E97D
:102EA00006400002C5E908042846FEF7AFFF08B156
:102EB000FDF72BFF7563002205212520AE63FFF788
:102EC00081F9252039E0DFF890804545B5D10D68BE
:102ED00045F400350D60096801F400310591016881
:102EE00041F0080101600068694600F008000590A3
:102EF00060208DE81900CDE9032C1848FFF702F88F
:102F0000144D174860352860C5E90174C5E90349C7
:102F10006C614FF44030AC61C5E9074028466C62F3
:102F2000FEF774FF08B1FDF7F0FE7563002205217E
:102F30002620AE63FFF746F92620FFF735F97CE738
:102F4000004C0040403802400000024000100140A8
:102F500040640240B810002000440040000C0240D1
:102F6000886002402DE9F843044690F839001F4676
:102F700016460D46202850D1B5B1AEB194F83800B0
:102F800001284AD0012084F838004FF00008C4F826
:102F90003C80212084F83900FFF7A2F8A6848146FE
:102FA000E68484F8388026E00120BDE8F883E08CD0
:102FB000401EE084A0684B46B0F5805F4FF00002F1
:102FC0004FF080012046009703D001F0D7FAE8B90E
:102FD0000DE001F0D3FAC8B928882168C0F30800D1
:102FE0004860206908B16D1C05E0AD1C03E0216854
:102FF00015F8010B4860E08C0028D8D14B46002220
:1030000040212046009701F0B9FA08B10320CCE72F
:10301000202084F839000020C7E70220C5E7FEE73A
:1030200010B586B0044614216846FDF773F9E068D0
:103030000090112001900120029003200390694626
:10304000A068FEF75FFF06B010BD10B5044600F0A3
:103050000CFEA089012281B2A068FFF73BF8A0888E
:10306000012281B22068FFF735F80120FDF7F2FD5B
:10307000A088002281B22068FFF72CF80120FDF71C
:10308000E9FDA089002281B2A068BDE81040FFF7E9
:1030900021B810B5044600F0E8FDA089002281B2F5
:1030A000A068FFF717F80120FDF7D4FDA0880022E3
:1030B00081B22068FFF70EF80120FDF7CBFDA08953
:1030C000012281B2A068FFF705F80120FDF7C2FDDB
:1030D000A088012281B22068FEF7FCFFBDE8104005
:1030E0000120FDF7B7BD000070B5044680890D468C
:1030F00081B20022A068FEF7EDFF204600F0B5FD8A
:10310000A08881B22068BDB15FF00102FEF7E2FF46
:103110000120FDF79FFDA089012281B2A068FEF782
:10312000D9FF0120FDF796FDA089002281B2A06899
:10313000BDE87040FEF7CEBF0022E7E770B500257E
:1031400004462E4600F07EFDA089002281B2A068D0
:10315000FEF7C0FFA089012281B2A068FEF7BAFF86
:103160007006060EA08881B22068FEF7A7FF3043E4
:103170006D1CEDB20646082DE6D370BD70B5044651
:103180008089002281B2A068FEF7A4FF204600F0EB
:1031900059FD0120FDF75EFDA089012281B2A068E2
:1031A000FEF798FF0120FDF755FDA08881B2206849
:1031B000FEF784FF0546A089002281B2A068FEF7D1
:1031C00089FF284670BD70B50E46044600F04DFDDF
:1031D0000025A089002281B2A068FEF77BFF30069F
:1031E000A08881B2206801D5012200E00022FEF70C
:1031F00071FF7006060E0120FDF72CFDA08901224B
:1032000081B2A068FEF766FF0120FDF723FD6D1C6B
:10321000EDB2082DDDD3A089002281B2A068BDE8FF
:103220007040FEF757BF00000021074A084650547F
:10323000491CC9B21029FAD303490C3908704870E7
:103240008870887170470000E40100207CB5144646
:103250000D4606466B4606223B21682000F0F2F838
:1032600000282ED19DF800109DF80120090209B216
:10327000114300EE101AF8EEC00A9FED120A60EE3C
:10328000800AC6ED000A9DF802109DF8032009028D
:1032900009B2114300EE901AF8EEE00A60EE800ADF
:1032A000C5ED000A9DF804109DF80520090209B239
:1032B000114300EE901AF8EEE00A20EE800A84ED49
:1032C000000A7CBD000080387CB514460D460646D9
:1032D0006B4606224321682000F0B4F800282ED166
:1032E0009DF800109DF80120090209B2114300EE7B
:1032F000101AF8EEC00A9FED120A80EE801A86EDD1
:10330000001A9DF802109DF80320090209B211432A
:1033100000EE901AF8EEE00A80EE801A85ED001AB1
:103320009DF804109DF80520090209B2114300EE32
:10333000901AF8EEE00A80EE801A84ED001A7CBD47
:103340006F1283411E4808B5016841F00201016017
:1033500000681C4900F0020000901B488A15C0E973
:103360000212016049154160FFF75AFE752168207D
:1033700000F02CF8682801D0012008BD80226B21C4
:10338000682000F0ABF86420FEF7AAFD01226B2153
:10339000682000F0A3F818221B21682000F09EF896
:1033A00001221C21682000F099F805221A216820CA
:1033B00000F094F80A20FEF793FD002008BD0000FD
:1033C0003038024000040240C801002070B50446B5
:1033D0000D461B48FFF739FE6006010E1848FFF73F
:1033E000F2FE1748FFF7CAFE012823D029461448E9
:1033F000FFF7E9FE1248FFF7C1FE01281BD0104875
:10340000FFF723FE012000EB4400C1B20C48FFF798
:10341000DAFE0B48FFF7B2FE01280ED00848FFF78E
:103420008DFE044601210648FFF75EFE0448FFF7C3
:1034300030FE204670BD022070BD032070BD00002C
:10344000C80100202DE9F04106461D4614460F46EE
:103450002148FFF7FAFD7006010E1F48FFF7B3FE83
:103460001D48FFF78BFE012819D039461A48FFF78F
:10347000AAFE1948FFF782FE01280FD01648FFF771
:10348000E4FD012000EB4600C1B21348FFF79BFEAC
:103490001148FFF773FE012803D011E00220BDE8B8
:1034A000F0810320FBE70C48012C10D0FFF746FE0B
:1034B000287000210848FFF717FE641EE4B26D1C57
:1034C000002CF0D10448FFF7E4FD0020E7E7FFF708
:1034D00035FE28700121EDE7C801002070B50446D3
:1034E00015460E461348FFF7B0FD6006010E114861
:1034F000FFF769FE0F48FFF741FE012815D031465E
:103500000C48FFF760FE0B48FFF738FE01280DD08E
:1035100029460848FFF757FE0648FFF72FFE012807
:1035200006D00448FFF7B5FD002070BD022070BD35
:10353000032070BDC80100200F4810B50D4901607F
:103540000321416000214FF400228160C0E9031291
:103550004FF440124261017641768176C17601775F
:103560004177FEF7DCF9002803D0BDE81040FDF7F5
:10357000CCBB10BD00640040940600200F4810B57D
:103580000D4901600321416000214FF40022816058
:10359000C0E903124FF44012426101764176817610
:1035A000C17601774177FEF7BAF9002803D0BDE86C
:1035B0001040FDF7AABB10BD00680040BC0600200B
:1035C000114808B5016841F480010160016801F407
:1035D00080010091016841F400110160006800223F
:1035E00000F40010009005211020FEF7EBFD1020E4
:1035F000FEF7DAFD002205213A20FEF7E3FDBDE8E3
:1036000008403A20FEF7D0BD3038024010B5AAB0CD
:103610001C2221496846FCF764FE0021684601F03F
:1036200073FF1E4C1C491C2220601C3107A8FCF7AC
:1036300058FE002107A801F067FF174960601C22AF
:1036400038310EA8FCF74DFE00210EA801F05CFFFA
:103650001149A0601C22543115A8FCF742FE00213C
:1036600015A801F051FF0C49E0601C2270311CA824
:10367000FCF737FE00211CA801F046FF0649206137
:103680001C228C3123A8FCF72CFE002123A801F07A
:103690003BFF60612AB010BD08620008D80000201E
:1036A000154808B5016841F080010160016801F02A
:1036B00080010091016841F001010160016801F0A1
:1036C00001010091016841F010010160016801F001
:1036D00010010091016841F002010160016801F0F0
:1036E00002010091016841F008010160006800F0EA
:1036F0000800009008BD00003038024010B596B0B8
:1037000000240F9410941194129413941C2108A86F
:103710001494FCF7FFFD20216846FCF7FBFD2848C8
:1037200026490160A721C0E9011444F61F61C0E9E0
:10373000031444618461FFF797F808B1FDF7E5FAD7
:103740004FF480500F900FA91D48FFF704F908B1FE
:10375000FDF7DBFA1A48FFF7B0FA08B1FDF7D5FA22
:10376000139413A916481494FFF736F808B1FDF71F
:10377000CCFA6020CDE908040A940C940D940C2234
:1037800008A90F480E94FFF730FA08B1FDF7BDFA0B
:1037900000944FF40050CDE9044002940194039446
:1037A000694607480794FEF7EDFF08B1FDF7ADFA4B
:1037B0000348FFF7EFF916B010BD0000000001400C
:1037C000380F002010B586B00024164800940194EC
:1037D0000294039404944FF080410594016040F2F8
:1037E0004731C0E90114C721C0E903148461FFF720
:1037F0003BF808B1FDF789FA4FF480500090694614
:103800000848FFF7A8F808B1FDF77FFA049404A967
:1038100004480594FEF7E0FF002801D0FDF775FA93
:1038200006B010BD780F00201CB500240E4800948F
:103830000C490194C0E900144FF6FF71C0E9024140
:103840008461FFF711F808B1FDF75FFA009469464B
:1038500005480194FEF7C0FF002801D0FDF755FA96
:103860001CBD000000100040B80F00200C4810B52F
:103870000A4901604FF4E1314160002181600C226E
:10388000C160C0E904128161C161FFF776FA0028C6
:1038900003D0BDE81040FDF738BA10BD004C004021
:1038A000F80F00200C4810B50A4901604FF4E131CF
:1038B0004160002181600C22C160C0E90412816175
:1038C000C161FFF75AFA002803D0BDE81040FDF7A8
:1038D0001CBA10BD00100140381000200C4810B573
:1038E0000A4901600B494160002181600C22C160DE
:1038F000C0E904128161C161FFF73FFA002803D0DB
:10390000BDE81040FDF701BA10BD000000440040C2
:1039100078100020A0860100FEE77047F0B390ED1C
:10392000111A80ED121AD0ED101AC0ED111AC0ED67
:10393000060A80ED070A30EEC00A80ED100AD0EDCD
:10394000010A20EE801A80ED0A1AD0ED0B0A90EDE4
:10395000022A42EE000A30EE610AC0ED0B0A90ED39
:103960000E2A80ED0F2A90ED0D2A80ED0E2A80EDB3
:103970000D0AD0ED031A61EE801AC0ED0C1A90ED1D
:10398000050AF4EEC00AF1EE10FA0EDCB1EE400AC0
:10399000F4EEC00AF1EE10FA07D300E002E090ED79
:1039A0000B0A04E09FED0E0A704780ED0B0A31EE22
:1039B000000A30EE210A80ED090AD0ED040AB4EEC7
:1039C000E00AF1EE10FA06DCF1EE600AB4EEE00A6D
:1039D000F1EE10FA01D2C0ED090A90ED090A704724
:1039E0000000000000282BD0002929D091ED000A0A
:1039F00080ED010A91ED010A80ED020A91ED020AC3
:103A000080ED030A91ED030A80ED040A91ED040AAA
:103A100080ED050A9FED0B0A80ED0F0A80ED0E0A7E
:103A200080ED0D0A80ED090A80ED0C0A80ED0B0A8D
:103A300080ED0A0A80ED120A80ED110A80ED100A6D
:103A400070470000000000000548D0ED050AB0F9FD
:103A5000100000EE100A0348B8EEC00AFFF75EBF80
:103A6000C40300203404002010B506490648FFF7BF
:103A7000B9FF044904481431BDE810404C38FFF741
:103A8000B1BF00002C00002080040020134D144C16
:103A9000144E154FB5F910000221404200EE100AF5
:103AA000B8EEC00A84ED000AB5F9300000EE100A45
:103AB0000B48B8EEC00A84ED010A96ED000AB8EE94
:103AC000C00A84ED020A97ED130A84ED030AFDF79C
:103AD00087F8042001F00CFDDCE70000E40300207F
:103AE000740300204C0200209C020020002801DC0E
:103AF000404200B27047000070B5194CB4F90000A4
:103B0000FFF7F4FF4FF42575A84217DCB4F9020063
:103B1000FFF7ECFFA84211DCB4F90400FFF7E6FF61
:103B2000A8420BDCB4F90600FFF7E0FFA84205DC71
:103B3000A07A18B1E07A08B1002070BD0020208082
:103B40006080A080E08020810221A172E172A081CA
:103B5000E0812082A074E074A082012070BD00008A
:103B60006801002030B5144B1C68656945F04005BC
:103B700065611B68DC6844F01004DC600F4B1C6856
:103B8000256825F0010525601C682568ED07F7D13B
:103B90001D680B4CAC601C68E06018680161186817
:103BA00042601868016841F480210160186801686A
:103BB00041F00101016030BD781000201811002093
:103BC0000444004038B51B480168CA6822F400521A
:103BD000CA60194A11680B6823F001030B6013686F
:103BE000242159600068016841680091134C1368F2
:103BF0004FF40011A34202D9104B4C3B04E0104C8F
:103C0000A34203D90D4B503B196008E00C4D0C4CFE
:103C1000603DB83CAB4201D9E16000E0A160C16801
:103C200041F40051C1601068016841F00101016078
:103C300038BD0000781000201811002058640240A0
:103C4000B860024010B586B0044614216846FCF7FF
:103C500061FB60680090002001900120029069469D
:103C60002068FEF74FF906B010BD10B586B00446C7
:103C700014216846FCF74EFB60680090112001900B
:103C8000012002900320039069462068FEF73AF96C
:103C900006B010BD70B50C4D0C4E002405EB441061
:103CA000D0ED050AB0F9100000EE100A04EB440054
:103CB00000EB0410B8EEC00A06EB8000FFF72EFE02
:103CC000641C022CEADB70BDE4030020CC0400205D
:103CD00070B5FDF71BF81C481D4D1E4CC17A1B48E2
:103CE000012906D09FED1C0A80ED050A9FED1B0AF5
:103CF0000FE0A97A012900D0697AA1694A4200EE51
:103D0000102AB8EEC00A80ED050A00EE101AB8EECF
:103D1000C00A80ED0D0AFFF7BDFF6078012808D0CA
:103D200010489FED0F0A80ED050ABDE87040FFF7CF
:103D30008BBE287A18B1BDE8704000F075B9BDE8B7
:103D40007040012000F070B868010020E4030020FA
:103D5000D8010020100000200080A2C50080A245EC
:103D600000000000C403002010B50B482DED028BAD
:103D70009FED088A80ED058A80ED0D8AFFF78AFFA6
:103D8000064880ED058ABDEC028BBDE81040FFF7C8
:103D90005BBE000000000000E4030020C40300201C
:103DA0001C4B10B5D97A1C481C4A9FED1D0A0329EB
:103DB00001D0022910D080ED050A80ED0D0A50785F
:103DC000184C012817D084ED050A00BFFFF762FFE9
:103DD000BDE81040FFF738BE91694C4200EE904AB2
:103DE000F8EEE00AC0ED050A00EE901AF8EEE00ADF
:103DF000C0ED0D0AE3E7B3F90800C000FCF7AEFB25
:103E000041EC100B00F08CFF51EC100BFCF708FCA0
:103E10006061DBE768010020E4030020100000205F
:103E200000000000C40300202DE9F0410746384897
:103E3000384CC17A012908D0FCF7E8FDA088364D3E
:103E4000E8B32078002650B118E0807CA178411AB0
:103E5000012902D1A188491CA180A070EEE700EEE3
:103E6000107A9FED2E1AEE61F8EEC00A9FED2C0A33
:103E7000012000EE810A85ED030A20702889E96996
:103E800000EB413000EE100A2648B8EEC00A85ED7E
:103E9000010AD5ED030AFFF741FD2248D0ED090ADA
:103EA000B5F9100000EE100A1E48B8EEC00A4C38F2
:103EB000FFF734FD95ED030AD5ED010A00E01FE0A0
:103EC00030EE600A1849B0EEC00A10EE100A8842BF
:103ED00014DAB5F91000FCF741FB41EC100B00F0CF
:103EE0001FFF9FED121B51EC100B53EC112BFCF735
:103EF00067FB03D22670A088401EA080BDE8F08139
:103F00009FED0C0A85ED050ABDE8F041FFF79CBD69
:103F10006801002010000020C403002000001047AA
:103F2000000080458004002000803B450000000028
:103F300000509440000000002DED028B82B0FFF78E
:103F400093FD354C002500BF05EB450000EB051047
:103F500004EB80003149FFF745FD6D1C022DF3DBBA
:103F600002F086F82D4EDFF8B0802D4D2D4FB2EEC9
:103F7000048A443EA8F19808CDF80000B5F9040081
:103F8000B5F90210D5ED020A401A00EE100A70EEE3
:103F9000880AB8EEC00AB4EEE00AF1EE10FA01DDCC
:103FA000012000E000207070287B0F2828D0122804
:103FB00029D041F25040B061B87A012826D00328B8
:103FC00027D0FFF7D1FE00BF94ED1C0ABDEEC00A5A
:103FD00010EE100A94ED090A02B2BDEEC00A10EE0E
:103FE000100A98ED090A01B2BDEEC00A10EE100ADF
:103FF00000B201F001F80221684601F059FEBDE768
:1040000040F63C70D7E741F2CC00D4E7FFF760FE02
:10401000DAE7FFF7C5FED7E7CC0400205400002004
:104020002404002068010020154B30B49A7A002146
:104030001448032A02D0012A07D00DE0DA7A032AB5
:104040000AD0022A08D1092106E00F4A0C23947AEB
:104050000B4A927C012A10D0A0F80E10B0F90E0085
:10406000C0EB0010000100EE100A0848B8EEC00ACC
:1040700080ED050A30BCFFF7E7BCC381EEE7000026
:104080006801002010000020D8010020C403002097
:10409000012001F02DFAFBE710B5FEF727F801F03B
:1040A000D9FF012803D0BDE8104001F065BF10BD65
:1040B00030B593B030216846FCF72CF914210CA8D8
:1040C000FCF728F919480025016841F0805101608A
:1040D000006800F0805011901548016841F480415B
:1040E00001600068022400F48040119001200390D8
:1040F00010200490009406940820CDE90750A820D1
:10410000CDE9090404200B906846FEF777F90CA965
:104110000F2081E831004FF4A0500F90E002109082
:1041200005210CA8FEF780F813B030BD40380240DE
:10413000007000400548016841F4700101600349C6
:104140004FF00060803908607047000088ED00E0A3
:104150000148FEF76CBC0000780F0020F0B5026843
:10416000254C264D264E274F274B4FF0804CA04222
:1041700009D0604507D0A84205D0B04203D0B8426C
:1041800001D0984204D122F0700E4A6842EA0E0231
:10419000A0421BD0604519D0A84217D0B04215D01C
:1041A000B84213D0984211D0184DA8420ED0184DE5
:1041B000A8420BD0174DA84208D0174DA84205D0F1
:1041C000164DA84202D0164DA84203D122F44075E4
:1041D000CA682A434D6922F080022A4302608A6835
:1041E000C2620A688262A04201D0984201D1096984
:1041F000016301214161F0BD000001400004004065
:1042000000080040000C0040000401400040014054
:10421000004401400048014000180040001C0040DC
:104220000020004010B501F01F030121046A9940ED
:104230008C430462016A9A401143016210BD10B5BB
:10424000846842EA032224F47F440A4322438260C2
:1042500010BD826822F070020A4342F007018160BB
:1042600070470000F0B5026A22F001020262036AA0
:1042700042688469124E24F073050C682C4323F0C5
:1042800002058B682B430D4DA84201D0B04205D1E9
:1042900023F00807CB683B4323F00403A84201D076
:1042A000B04205D14D6922F4407215438A692A4310
:1042B00042608461496841630362F0BD00000140CF
:1042C00000040140F0B5026A22F010020262026AA4
:1042D000436884690D6824F4E64444EA05248D6843
:1042E00022F0200242EA05120F4D104EA84201D0E2
:1042F000B04206D1CF6822F0800242EA071222F0D3
:104300004002A84201D0B04207D14D6923F4406376
:1043100043EA85038D6943EA850343608461496804
:1043200081630262F0BD0000000001400004014012
:10433000F0B5026A22F480720262026A4368C469BC
:1043400022F4007224F073050C68124E2C438D6821
:1043500042EA05220E4DA84201D0B04206D1CF68F4
:1043600022F4006242EA072222F48062A84201D0CD
:10437000B04207D14D6923F4405343EA05138D69D8
:1043800043EA05134360C4614968C1630262F0BD3A
:10439000000001400004014030B5026A22F480525E
:1043A0000262046A4268C3690D6823F4E64343EA83
:1043B00005238D6824F4005444EA0534084DA842CE
:1043C00002D0084DA84204D14D6922F4804242EA4D
:1043D00085124260C36149680164046230BD000017
:1043E000000001400004014010B5036A046A24F093
:1043F00001040462846924F0F00444EA021423F006
:104400000A020A438461026210BD10B5036A23F0F8
:10441000100303628369046A23F4704343EA02329F
:1044200024F0A00343EA01118261016210BD000083
:1044300030B5074B00221C1D06E01D686D06FCD53B
:10444000855C2560521CD2B28A42F6D330BD000092
:10445000004C00402DE9F041044600680169E26823
:1044600021F44051114301612169A068E2690843C8
:104470006169114308432168CA6849F20C639A4391
:104480000243CA6020684169A26921F44071114366
:104490004161E069192764253226B0F5004F354A9D
:1044A000354920684FF0000806D0884201D090427C
:1044B00036D1FDF763FF35E0884201D0904202D14A
:1044C000FDF75CFF01E0FDF749FF61684A18A0FBBA
:1044D000070148EB0803FBF7D3FE0146B0FBF5F0FC
:1044E0000201B1FBF5F06FF01803584301EB8000B7
:1044F00006EBC000B0FBF5F000F0F80002EB400264
:10450000B1FBF5F0584301EB800006EBC000B0FBB7
:10451000F5F000F00700216810448860BDE8F081E4
:10452000FDF71CFF61688B0F8A00A0FB0701FBF7FA
:10453000A7FE0146B0FBF5F06FF01802504301EB07
:10454000800006EB0010B0FBF5F000F0F002B1FBCC
:10455000F5F002EB0012B1FBF5F06FF018035843D1
:1045600001EB800006EB0010B0FBF5F000F00F004F
:10457000D1E7000000140140001001402DE9F04196
:10458000984617460E460446069D1DE0681C1BD043
:104590002DB1FDF7A5FDA0EB0800A84214D92068B5
:1045A000C16821F4D071C1602068416921F0010126
:1045B0004161202084F8390084F83A00002084F812
:1045C00038000320BDE8F0812068006836EA00006A
:1045D00004D00020B842D9D00020F3E70120F9E749
:1045E000F8B501F045FD3B4948603B48006802686A
:1045F00093064FF0000203D503684068009042E044
:10460000364B1B68DB063ED5036840680090344893
:1046100003681C684FF040052603324C1E6826F0E4
:1046200001061E6003685E68C6F140064E805D604C
:1046300015D403681D6845F400251D6000680368F3
:1046400043F00103036004F1200669CEC4E9076268
:104650006262A262E262103484E8290013E0224B15
:104660009D6A25F400259D620068036843F00103FC
:10467000036004F1300669CE22636263A263E263E1
:10468000103484E86900174B164810331C68012C5D
:1046900011D04B785B1CDBB24B700A2B0AD14A70ED
:1046A0009FED120A026080ED010A80ED020A00BF50
:1046B00080ED030AF8BD4A700121016093ED010A03
:1046C00080ED010A93ED020A80ED020A93ED030AE0
:1046D000EEE7000008000020381000200010014024
:1046E000B81000204C0200200060024000000000D2
:1046F00038B52A4800680168890603D50168406812
:10470000009038BD26490968C906FAD50168406895
:10471000244A0090106801684FF024030C032249DA
:10472000046824F00104046016D414686068C0F1C1
:10473000240080B20880636011680B6843F4002392
:104740000B6011680A6842F001020A601228D8D191
:10475000164901F1160015E010684468C4F12404FC
:10476000A4B20C8043601248816A21F40021816266
:104770001068016841F001010160122CC1D10B49A0
:1047800001F13A0001F030F9FFF7B6F90128B8D18C
:10479000BDE838402420FFF715BA0000781000204B
:1047A0000044004018110020000000206801002093
:1047B00000600240FEE70000114E124F124D134CF4
:1047C0004FF00108E87A20703068FF2803D0A87AFB
:1047D000032809D00AE097F90000642801DD0B20C6
:1047E00000E00C20207001E084F8008014230122F6
:1047F00006490748FEF7B6FB0A2000F079FEE1E71C
:104800005C02002024040020680100200800002031
:1048100038100020014A024900F05CBB49530008EF
:104820006001002003B401984100009850EAC120C3
:1048300018BF04204A0D18BF40F0010040F2FF727B
:10484000B2EB515F08BF40F00200012808BF05200D
:1048500002B070474100080218BF04200A0E18BFBA
:1048600040F001004FF07F4232EA010108BF40F002
:104870000200012808BF052070470907090E00281B
:1048800004DB00F1E02080F80014704700F00F0016
:1048900000F1E02080F8141D7047000010B54FF0C3
:1048A0000E402DED028BB0EE408A18EE104A00EB60
:1048B0004400B0F1506F4AD84FF0FC40B0EB440FC9
:1048C00022D2B0EEC80AF7EE000A30EEC00AF6EEC9
:1048D000000A60EE208A18EE900A01F0DFF801EE7F
:1048E000100A14F0004F1DBFDFED2D0A9FED2D0AB9
:1048F000B1EE411ADFED2C0A08BF9FED2C0AF8EE4D
:10490000001A21EE218A05E0DFED290A68EE088A07
:10491000B0EE600A9FED271ADFED271A30EE080A85
:1049200048EE811A9FED251A08EEA11ADFED241A30
:1049300048EE811A9FED231A08EEA11A68EE281A94
:10494000BDEC028B01EE810A30EE200A10BD4FF063
:10495000E440B0EB440F0CD918EE100AFFF77AFFD1
:10496000042808BF00F098FAB0EE480ABDEC028BAC
:1049700010BD4FF07F40B0EB440F07D2B0EE480AB5
:10498000BDEC028BBDE8104000F07ABA012000F0C7
:104990009BFABDEC028BBDE8104000F075BA000038
:1049A0000000C9BF22AAFDB90000C93F22AAFD39F3
:1049B0000000000024FE1C3DC78AD83C1E67383D1D
:1049C0001B93993DAFAA2A3E70B52DED020B2DED3C
:1049D0000A8B82B00D98C40F20F00045AE48854286
:1049E00048D3AE48854219D30C99C5F31300084348
:1049F00009D09DED0C0B02B0BDEC0A8B02B0BDE8F6
:104A0000704000F013BA002C14BF9FEDA50B9DED74
:104A10000C0B02B0BDEC0A8B02B070BD9FEDA20B77
:104A200053EC102B9DED0C0B51EC100BFBF7E0FD44
:104A30000AD2022000F048FA02B0BDEC0A8B02B0A4
:104A4000BDE8704000F0FCB99FED990B53EC102BC2
:104A50009DED0C0B51EC100BFBF7B2FD0AD20220BE
:104A600000F032FA02B0BDEC0A8B02B0BDE8704033
:104A700000F0F6B990489FED92BBA8425CD29248F4
:104A8000854219D29148784400EBC40090ED000BA8
:104A900053EC102B9DED0C0B51EC100BFBF7E6FCCF
:104AA00041EC1A0B8A48784400EBC40090ED009B5F
:104AB000C4F10100041B36E09FED870B53EC102B73
:104AC0009DED0C0B51EC100BFBF7D6FC41EC100BE1
:104AD0008348784400EBC40090ED001B51EC100BB0
:104AE00053EC112BFBF721FCFBF7EAFE0446FBF726
:104AF00035FD41EC180B9FED7C0B53EC102BFBF7B5
:104B0000BBFC9DED0C1B53EC112BFBF7B2FC41ECF5
:104B10001A0B9FED770B51EC180B53EC102BFBF796
:104B2000ABFC41EC190B51EC1A0B53EC192BFBF7B6
:104B30009DFCCDE90C011BE06F48854217D29FED2B
:104B4000700B53EC102B9DED0C0B51EC100BFBF785
:104B5000ECFB53EC1B2BFBF74BFD08D29DED0C0B34
:104B600053EC1B2B51EC100BFBF7DFFB6EE000242A
:104B70009DED0C0B53EC102B51EC100BFBF77CFC58
:104B800041EC180B60480521B0EE480AF0EE680AC7
:104B9000784400F0CFF853EC182B51EC100BFBF7D6
:104BA0006BFC9DED0C1B53EC112BFBF762FC41ECF5
:104BB000180B9FED570B5CB353EC182B51EC100BFB
:104BC000FBF754FC9DED0C0B41EC1C0B53EC182B2C
:104BD00051EC100BFBF750FC53EC1C2BFBF701FEC8
:104BE00053EC192BFBF745FC53EC1A2BFBF73EFC5F
:104BF00053EC1B2BFBF73DFCCDE900016FF47F70FC
:104C0000844226DB01EB045001909DED000B00E790
:104C100053EC102B51EC180BFBF728FC9DED0C0B03
:104C200041EC190B53EC182B51EC100BFBF724FC47
:104C300053EC192BFBF7D5FD9DED0C1B53EC112B01
:104C4000FBF714FC53EC1B2BFBF713FC41EC100B94
:104C5000DFE608464FF07A5101EB04519FED2E0B31
:104C6000084453EC102B01909DED000B51EC100B00
:104C7000FBF702FC0D4645EC100B044651EC100B03
:104C8000FFF7D0FD042808BF00F0EAF845EC104B10
:104C9000BFE6000000000000422E86400000F07FCA
:104CA0000000000000000000EF39FAFE422E8640AE
:104CB00051302DD5104987C0422ED63F000000004C
:104CC000000000000000F03FB2A2F03F56180000C4
:104CD0004618000000000000FE822B654715F73FD4
:104CE000FA170000000000000000E0FE422EE63F40
:104CF000763C7935EF39EA3D0000303E0000000097
:104D00009C7500883CE4377E6C17000000000000B2
:104D100000000000000000400000000000007001E2
:104D20002DED020B019820F0004001909DED000B4D
:104D300002B0704770B504462DED028B4D1E00EB9E
:104D4000C500B0EE408AF0EE608A90ED000B35F0C1
:104D5000060017D053EC182B51EC100BFBF78CFB13
:104D600041EC100B6D1E04EBC50090ED001B51ECE7
:104D7000100B53EC112BFBF7D8FA41EC100B35F06C
:104D80000600E7D1022D36D0042D1CD0062D1CBF05
:104D9000BDEC028B70BD53EC182B51EC100BFBF7E4
:104DA0006BFB94ED0A1B53EC112BFBF7BEFA53EC93
:104DB000182BFBF761FB94ED081B53EC112BFBF751
:104DC000B4FA41EC100B53EC182B51EC100BFBF721
:104DD00053FB94ED061B53EC112BFBF7A6FA53EC97
:104DE000182BFBF749FB94ED040B53EC102BFBF74E
:104DF0009CFA41EC100B53EC182B51EC100BFBF709
:104E00003BFB94ED021B53EC112BFBF78EFA53EC9A
:104E1000182BFBF731FB94ED001B53EC112BFBF728
:104E200084FABDEC028B41EC100B70BD10B553EC55
:104E3000102B51EC100BFBF778FA41EC100B10BD66
:104E40009FED050B10B553EC102B51EC100BFBF73D
:104E500013FB41EC100B10BD0000000000000070BF
:104E60009FED050B10B553EC102B51EC100BFBF71D
:104E700003FB41EC100B10BD00000000000000100F
:104E800030EE000A70470000DFED020A80EEA00A53
:104E900070470000000000009FED020A20EE000AAB
:104EA000704700000000001002E008C8121F08C18F
:104EB000002AFAD170477047002001E001C1121F9B
:104EC000002AFBD1704700000149086070470000CC
:104ED000640100202DE9F04116460F4604460025E6
:104EE00003E03946B047641C6D1C20780028F8D1D7
:104EF0002846BDE8F081000013480178642921D8D4
:104F000001219FED120A80ED020A80ED060A80ED74
:104F1000090A80ED040A80ED080A80ED0B0A80ED95
:104F2000190A80ED1B0A80ED1C0A80ED250A80ED30
:104F3000290A80ED2C0A80ED270A80ED2B0A80EDEE
:104F40002E0A0170704700009C0200200000000043
:104F500070B58AB0002407260396019402940826AF
:104F6000CDE90646060A8DF804608DF805008DF837
:104F70000820080A8DF806008DF809300E9D00946F
:104F80008DF807108DF80A5005948DF820408DF8A3
:104F90000B406B4601AA03A90348FCF763FA00988B
:104FA0000AB0C0B270BD00009406002000B589B000
:104FB000002240F2FF130193009208230892CDE9EA
:104FC000042303928DF8182007920A0A8DF82020F6
:104FD0008DF82110010A8DF822108DF823006B4600
:104FE00007AA01A90348FCF73DFA009809B0C0B22E
:104FF00000BD00009406002010B58AB000234FF4D5
:1050000000740394019302930824CDE90634040A42
:105010008DF804408DF80500100A8DF806008DF813
:1050200008308DF80930080A8DF80A0000930593BE
:105030008DF820308DF807208DF80B106B4601AAF3
:1050400003A90348FCF70EFA00980AB0C0B210BDDD
:10505000BC06002010B52DED048B60EEA08AB0EEEA
:10506000408AB1EE040AC8EE800A9FED1E0AF4EEF3
:10507000C80AF1EE10FA32D9B5EEC08AF1EE10FA94
:105080002DD99FED190A28EE000A10EE100AFBF741
:1050900083FA41EC100BFFF797FC9FED141B51ECCA
:1050A000100B53EC112BFBF7E7F99FED120A41ECC3
:1050B000190B68EE000A80EEA80AFFF7EFFBDFEDA0
:1050C0000E0A20EE200A10EE100AFBF765FA53ECE8
:1050D000192BFBF7CBF9FBF7A3FA00EE100ABDEC96
:1050E000048B10BD000000006E3410BF000000C033
:1050F000A1451E40CDCC1C413333E54170B58048FD
:10510000B1EE040AF3EE010A837A9FED7E1A7E491E
:10511000C27A7E48D1ED032A012B2AD1012A02D07E
:10512000B0EE000A02E07A4CE47A14B380ED050A8E
:10513000784D80ED060AD1ED010A95ED020A764C14
:1051400030EE600AF7EE000A30EE600A84ED010AE4
:10515000D5ED030A91ED021A70EE813AC4ED033ADF
:10516000217864290CD2DFED6D0A491CC0ED060AD6
:1051700007E080ED050A82EEA00A20EE010AD7E7DB
:1051800064212170D4ED020A30EE601AB0EE600A9C
:105190009FED633A01EE030A84ED0D0A30EE601ACA
:1051A000D4ED060ADFED5F5AF0EE601A41EE251AE3
:1051B000C4ED0F1A71EEE00A9FED5B5A20EE854AAE
:1051C00084ED114A94ED092A74EE420ADFED574A44
:1051D00011EE905A564900EEA42A84ED092A94ED66
:1051E000041A73EEC13AF0EE410A43EE830AC4EDAD
:1051F0000E0A70EEC13A94ED081AB0EE413A03EE91
:10520000A51A84ED101A31EE433A63EE053AC4ED67
:10521000123A94ED0B3A33EEC35A05EE243A84ED7C
:105220000B3ADFED444A8D4201DDF0EE641A11EED7
:10523000905A414EC4ED0F1A9FED405AB54201D924
:10524000F0EE451A11EE105AC4ED0F1A8D4201DD31
:10525000B0EE641A11EE101A84ED101AB14201D9A1
:10526000B0EE451A30EE215AF6EE004A31EEC44A4D
:1052700084ED101A02EE245A71EE633A34EE024ABB
:10528000012B84ED025A84ED064A30EE814A73EE1A
:10529000823A03EE244A84ED044AC4ED083AD0ED84
:1052A000063A03EEA10A63EEA41A61EEA31A01EE18
:1052B000820A84ED130AD0ED051A41EE810A21EE2F
:1052C000A41A21EE211ADFED1F1A41EE030A9FED09
:1052D0001C1AC4ED140A05D1012A03D0FBF794FD72
:1052E000002070BD82EE810AF0EE610AFFF7B2FE87
:1052F000D4ED140A70EE200A94ED130AEEE70000D4
:1053000068010020CDCC4C3E4C02002068000020FB
:10531000D80100208C0200209C0200200000000028
:105320009A99193ECDCCCC3DF4FD343F0AD7233CAD
:105330008FC2F53D8FC2F53D8FC2F5BD8FC2F5BD61
:1053400000007A446666864104490A685206FCD524
:10535000024AC1B2121D116070470000004C0040AB
:1053600008B5FBF7D3FC1748C17A1748012908D0C4
:1053700090F90610009190F9001090F901000223B5
:105380000DE04179012911D0C178012990F9061069
:10539000009190F9001090F9010010D00123012232
:1053A000FFF7D6FDBDE80840FDF73EBF90F90610B7
:1053B000009190F9001090F901000623EFE76F23A8
:1053C000EDE7000068010020D80100200A7A521C95
:1053D000D2B20A72824204D100200872084600F05C
:1053E00041B8704730B587B014216846FAF792FF8C
:1053F00018480021026842F008020260026802F0C8
:1054000008020592026842F0040202600068134C30
:1054100000F0040005901048114D0215C4E9000287
:10542000C214C4E903028214C4E906020122C4E9D9
:1054300009524FF4E0530093CDE9012103916946ED
:10544000FCF760FDA06A009069462846FCF75AFD0B
:1054500007B030BD3038024000080240F40100209F
:10546000000C02408188006889B2FCF72CBE000065
:10547000FCF744FEFEF71CFEFEF712F9FEF7A0F85B
:10548000FEF75AF8FEF77AF8FEF728FAFEF79AF9CF
:10549000FEF7CAF9FEF7EAF9FEF704FAFEF72EF96D
:1054A000FBF7CEFBFBF7A8FAFBF798FAFBF766FAD7
:1054B000FFF798FF00F090FA00F0DCFC02E006A095
:1054C000FFF7A8F9FDF73EFF0028F8D1FEF79EF898
:1054D00000F015F8FEE700006D70755F6572726F81
:1054E000720D0A0001460020842900D0C81C7047B4
:1054F00010B500B9012000F0B5FB002010BD10B5BB
:1055000000F01CFC002010BD7FB50D46044641692B
:10551000B0F9080081B1A16971B1FFF7E3FFD4E9E7
:1055200005128DE80700D4E900102B46226900F02F
:1055300066FD039004B070BDFFF7D4FF03A9CDE969
:105540000001208A2B4682B2D4E9001000F02AFD27
:10555000012801D00020EDE70398EBE72DE9F041A9
:10556000184C0F46054666692068001D00F0B5FA24
:1055700038B9206890F82C1001208840A169814337
:10558000A161681C07D137B12168BDE8F0410E4820
:10559000091D00F0E7BA20683544B542456021682E
:1055A00005D2A068BDE8F041091D00F0C3BA6068EB
:1055B000091D00F0BFFA206B854200D22563BDE8CB
:1055C000F081000000010020541200202DE9F0417C
:1055D000054600F0D3FA2E4C2069401C206120685B
:1055E0002C4F10B1E06940B32DE0256020690128FF
:1055F00029D1002606EB860007EB800000F08CFA2C
:10560000761C072EF6D323488C3000F085FA21480B
:10561000A03000F081FA1F48B43000F07DFA1D4838
:10562000C83000F079FA1B48DC3000F075FA1948F0
:105630008C3060601430A06005E02068E96AC06AC0
:10564000884200D82560E06A401CE062E96A0120D7
:10565000A26988401043A06101EB810007EB800044
:10566000291D00F07FFA00F0A9FAE06900280CD0AB
:105670002068E96AC06A884207D207494FF0805023
:105680000860BFF34F8FBFF36F8FBDE8F08100005C
:10569000000100207811002004ED00E010B5044660
:1056A00090F8510058B101280CD002280FD050209A
:1056B00080F31188BFF34F8FBFF36F8FFEE7206B2E
:1056C00000F090FA2046BDE8104000F08BBA10BD03
:1056D00010484FF47051420706D0C01D0D4920F00C
:1056E0000700411AC1F570510B4A00230144C2E979
:1056F00000030839103A21F0070111604B600B607C
:105700000B1AC0E9001393604FF000405360D06063
:1057100070470000681200204C010020144E154C08
:10572000A6F1C8074FF08058DFF84C9012E000BF98
:1057300000F024FAF068C568281D00F0CEF9206951
:10574000401E2061E068401EE06000F037FA284605
:10575000FFF7A4FFE0680028EAD138680128F9D9EA
:10576000C9F80080BFF34F8FBFF36F8FF2E70000DF
:10577000401200200001002004ED00E02DE9F04778
:105780009A46DDE9098481466FF00303206B03EB41
:1057900082021044089D20F00706700707D05020B1
:1057A00080F31188BFF34F8FBFF36F8FFEE723188D
:1057B0000A5C83F834200A5C12B1401C1028F6D32E
:1057C000002784F84370072D00D30625E562C4E95D
:1057D0001157201D00F0ABF904F1180000F0A7F9F3
:1057E0002461C5F107006462A061E76484F8507029
:1057F00052464946304600F0BFF82060B8F1000F2D
:1058000001D0C8F80040BDE8F087000030B511496C
:1058100000E011460A688242FBD34B685C18844260
:1058200003D1406818444860084643681C189442F5
:1058300009D1084C103C2468A24209D052681A448D
:1058400042600A6812680260814200D0086030BD80
:105850000460F9E74C01002006484168096829B155
:105860004168C968C9684968016370474FF0FF31F2
:10587000FAE700000001002008484068401C4FF093
:10588000500080F3118804D0BFF34F8FBFF36F8FA8
:10589000FEE7BFF34F8FBFF36F8FFEE75401002089
:1058A0002DE9F0410546002700F07EFA314E3068C0
:1058B00008B9FFF70DFFF06805424BD1C5B30835B5
:1058C00068070ED005F00700C0F10800054468071E
:1058D00007D0502080F31188BFF34F8FBFF36F8F35
:1058E000FEE72DB37068854234D822481030014657
:1058F0000C6801E020460C466168A94202D221688A
:105900000029F7D131688C4224D0076821680160F2
:1059100060680837411B10290FD96019420708D069
:10592000502080F31188BFF34F8FBFF36F8FFEE7D6
:1059300010E041606560FFF769FF61687068401AB8
:105940007060B268904200D2B060F06801430020FD
:10595000C4E9000100F0F6FB780707D0502080F37F
:105960001188BFF34F8FBFF36F8FFEE73846BDE856
:10597000F08100003C01002010B5031F4FF080743F
:105980001C601B1F21F001011960191F044B0B60E3
:1059900014390A60091F6FF0020244380A6010BD12
:1059A000795800080B4808B5C37AB0F902100022F4
:1059B000B0F90000012B07D0032B009207D0002381
:1059C0000322FFF7C5FA08BD01230092F8E706237A
:1059D000F6E700006801002002492422A1F124001A
:1059E000FEF7C0B8A2010020F0B5002855D000296C
:1059F00053D00278437842EA0322C2F30A020A80B3
:105A000043788478DB0843EA4413C3F30A034B80EA
:105A10008478C578A40944EA8504057944EA852494
:105A2000C4F30A048C80057946796D0845EAC615E9
:105A3000C5F30A05CD804679C6F301168E72467904
:105A4000B609CE728679C77946EA07268E81067A2C
:105A5000477A46EA0726CE81867AC77A46EA07263B
:105A60000E82067B8E74467BCE74867BC77B46EAAD
:105A700007268E82067C407CA2F580620A80A3F510
:105A800080634B80A4F5806446EA00208C80A5F5F5
:105A90008065CD80A0F580600881F0BD10B500EE76
:105AA000100A2DED028BB1EEC08A18EE100A20F01C
:105AB0000040C0F1FF40C00F0AD010EE100A20F0E5
:105AC0000040C0F1FF40C00F04BF0120FFF7FCF908
:105AD00018EE100ABDEC028B10BDD0E9013201694D
